:020000040800F2
:1000000000040020DF0D0008ED0D0008EF0D0008D2
:10001000F10D0008F30D0008F50D000800000000C8
:10002000000000000000000000000000F70D0008C4
:10003000F90D000800000000FB0D0008FD0D000890
:10004000410E0008430E0008450E0008470E000848
:10005000490E00084B0E00084D0E00084F0E000818
:10006000510E0008530E0008550E0008570E0008E8
:10007000590E00085B0E00085D0E00085F0E0008B8
:10008000610E0008630E0008650E0008FF0D0008F1
:10009000FF0D0008FF0D0008FF0D00086F0E00089F
:1000A000710E0008730E0008750E0008770E000828
:1000B000790E00087B0E00087D0E00087F0E0008F8
:1000C000810E0008830E0008850E0008870E0008C8
:1000D000890E00088B0E00088D0E00088F0E000898
:1000E000910E0008930E0008950E0008970E000868
:1000F000990E00089B0E00089D0E00089F0E000838
:10010000A10E0008A30E0008A50E0008A70E000807
:10011000A90E0008AB0E0008AD0E0008AF0E0008D7
:10012000B10E0008B30E0008B50E0008B70E0008A7
:1001300000F002F800F03AF80AA090E8000C8244BF
:100140008344AAF10107DA4501D100F02FF8AFF29C
:10015000090EBAE80F0013F0010F18BFFB1A43F0A5
:1001600001031847B0FC0000D0FC0000103A24BF87
:1001700078C878C1FAD8520724BF30C830C144BF0C
:1001800004680C607047000000230024002500264E
:10019000103A28BF78C1FBD8520728BF30C148BFEA
:1001A0000B6070471FB51FBD10B510BD01F0CAF838
:1001B0001146FFF7F7FF01F09CF801F0E8F803B4EF
:1001C000FFF7F2FF03BC01F0EDF8000010B50446A4
:1001D000C248844208D10121042000F017FB00210D
:1001E000042000F013FB46E0BD48844208D1012101
:1001F000082000F00BFB0021082000F007FB3AE08C
:10020000B848844208D10121102000F0FFFA0021F3
:10021000102000F0FBFA2EE0B348844208D10121FF
:10022000202000F0F3FA0021202000F0EFFA22E075
:10023000AE48844208D10121402000F0E7FA0021B5
:10024000402000F0E3FA16E0A948844208D10121D9
:10025000802000F0DBFA0021802000F0D7FA0AE0CD
:10026000A448844207D10121801500F0CFFA002173
:10027000A01500F0CBFA10BD10B50121084600F022
:10028000C5FA0021012000F0C1FA10BD2DE9F041AE
:10029000024600250026002000230024002791F8B4
:1002A00003C00CF00F0591F803C01CF0100F03D031
:1002B00091F802C04CEA050591F800C0BCF1000FAE
:1002C00031D0146800202BE04FF0010C0CFA00F341
:1002D000B1F800C00CEA03069E4220D183004FF023
:1002E0000F0C0CFA03F7BC4305FA03FC4CEA0404B8
:1002F00091F803C0BCF1280F06D14FF0010C0CFAA5
:1003000000FCC2F814C00AE091F803C0BCF1480F29
:1003100005D14FF0010C0CFA00FCC2F810C0401CD3
:100320000828D1D31460B1F800C0BCF1FF0F34DD50
:10033000546800202EE000F1080C4FF0010808FA84
:100340000CF3B1F800C00CEA03069E4221D18300F1
:100350004FF00F0C0CFA03F7BC4305FA03FC4CEA10
:10036000040491F803C0BCF1280F05D100F1080C7A
:1003700008FA0CF8C2F8148091F803C0BCF1480FD9
:1003800007D100F1080C4FF0010808FA0CF8C2F888
:100390001080401C0828CED35460BDE8F0814FF691
:1003A000FF710180022181700421C17070470246F3
:1003B000002093680B4201D0012000E0002070472C
:1003C0000146886880B2704702460020D3680B421D
:1003D00001D0012000E0002070470146C86880B2CB
:1003E000704701617047416170470AB1016100E0E7
:1003F00041617047C16070474FF480320A438261A7
:1004000081618261826982697047024600203A4BAD
:1004100018684FF68073184040EA02100843364BC4
:10042000186070473549C8617047F0B50A46002327
:10043000002400210025304E7168C0F3034583B2CB
:1004400000F44016B6F5401F08D121F070612A4E25
:10045000766826F07066284F7E6012E000F4801601
:10046000B6F5801F06D1032606FA05F4A14341F034
:10047000706106E0460D360103FA06F6B14341F01D
:10048000706122B1460D360103FA06F631431A4E69
:100490007160F0BD30B500228B071C0F0F2303FAEB
:1004A00004F2154B08338C1053F824309343124C4C
:1004B00008348D1044F8253023468C1053F824302E
:1004C0008C07240F00FA04F423430B4C08348D10DE
:1004D00044F8253030BD0A490860704700080140E3
:1004E000000C0140001001400014014000180140C0
:1004F000001C01400020014000000140000020429B
:10050000DC002042DD48006840F00100DB49086063
:1005100008464068DA490840D849486008460068FB
:10052000D8490840D54908600846006820F4802072
:1005300008600846406820F4FE0048604FF41F0041
:1005400088607047CD49096821F48031CB4A116039
:100550001146096821F480211160B0F5803F03D075
:10056000B0F5802F0ED106E0C449096841F480310E
:10057000C24A116007E0C149096841F4A021BF4A9D
:10058000116000E000BF00BF704710B501460022B7
:10059000002300204A11012A02D1B84C236806E04A
:1005A000022A02D1B54C236A01E0B44C636A01F01F
:1005B0001F02012494401C4201D0012000E00020D1
:1005C00010BD38B5002000900024002500BF312068
:1005D000FFF7DBFF05460098401C00900098B0F53F
:1005E000A06F01D0002DF2D03120FFF7CEFF08B16F
:1005F000012400E00024204638BD014600209F4A27
:10060000106820F0F80040EAC100106070479E4971
:100610000860704702460020984B586820F47C1010
:1006200042EA01031843954B5860704796490866A3
:10063000704701460020914A506820F003000843AB
:10064000506070478D48406800F00C0070470146CC
:1006500000208A4A506820F0F0000843506070473C
:1006600001460020854A506820F4E060084350604D
:10067000704701460020814A506820F4605040EAEB
:10068000C1005060704729B17C4A527A02437B4BCB
:100690005A7204E0794A527A8243784B5A72704710
:1006A0007A490860704701460020744A506820F477
:1006B00040400843506070470021754A11706F4AEE
:1006C00082F82010012802D0042808D103E001217B
:1006D0006F4A117004E005216D4A117000E000BFFF
:1006E00000BF70476B49086070476449096A01435D
:1006F000624A11627047674944390860704730B5F3
:1007000000210022002400235C4D6D6805F00C01DF
:1007100021B1042905D0082923D105E05E4D0560EB
:1007200022E05D4D05601FE0544D6D6805F47012C8
:10073000524D6D6805F48034022505EB92421CB9D8
:10074000564D554305600BE04C4D6D6815F4003F68
:1007500003D0524D5543056002E04F4D55430560AF
:1007600002E04D4D056000BF00BF444D6D6805F0CF
:10077000F00109094A4D6B5C0568DD4045603F4D5D
:100780006D6805F4E061090A454D6B5C4568DD4024
:1007900085603A4D6D6805F46051C90A404D6B5C47
:1007A0004568DD40C560354D6D6805F44041890BF5
:1007B0003C4D6B5CC568B5FBF3F5056130BD29B1F7
:1007C0002E4A526902432D4B5A6104E02B4A52696A
:1007D00082432A4B5A61704729B1284A92690243E1
:1007E000264B9A6104E0254A92698243234B9A6121
:1007F000704729B1214AD2690243204BDA6104E0F3
:100800001E4AD26982431D4BDA61704729B11B4AE7
:10081000D2680243194BDA6004E0184AD268824376
:10082000164BDA60704729B1144A12690243134B20
:100830001A6104E0114A12698243104B1A61704731
:1008400014494039086070470F49C86470470B4924
:10085000C87170470948406A40F080700749486293
:10086000704701460020054A92680A4201D00120E3
:1008700000E0002070470149887270470010024074
:100880000000FFF8FFFFF6FE00004242D80042429F
:10089000201002408004424200127A0000093D000C
:1008A000000000201000002001460020FD4A1068D2
:1008B00000F03800084310607047FA49096821F0D9
:1008C0000801F84A11601146096801431160704738
:1008D000F449096821F01001F24A116011460968D3
:1008E000014311607047F048EE494860EF484860A6
:1008F0007047EC48006940F08000EA4908617047A1
:100900000420E849C96811F0010F01D001200EE070
:10091000E449C96811F0040F01D0022007E0E14961
:10092000C96811F0100F01D0032000E004207047C7
:1009300008B500200090FF20009002E00098401EC3
:10094000009000980028F9D108BD70B50446042530
:10095000FFF7D6FF054605E0FFF7EAFFFFF7D0FFF8
:100960000546641E012D01D1002CF5D104B90525E1
:10097000284670BD70B50546042440F6FF70FFF7A9
:10098000E4FF0446042C19D1C648006940F0020077
:10099000C449086108464561006940F040000861AB
:1009A00040F6FF70FFF7D1FF0446052C06D0BD4886
:1009B000006941F6FD710840BA490861204670BDE2
:1009C00010B5042440F6FF70FFF7BFFF0446042C67
:1009D00018D1B448006940F00400B24908610846E3
:1009E000006940F04000086140F6FF70FFF7ADFF7E
:1009F0000446052C06D0AB48006941F6FB7108405F
:100A0000A8490861204610BD10B5042440F6FF70C7
:100A1000FFF79BFF0446042C3BD1A348A149886003
:100A2000A24888600846006940F020000861084636
:100A3000006940F04000086140F6FF70FFF785FF55
:100A40000446042C1CD19748006941F6DF71084028
:100A5000944908610846006940F010000861A5202B
:100A6000934908800F20FFF770FF0446052C10D033
:100A70008C48006941F6EF7108408A49086108E036
:100A8000052C06D08748006941F6EF71084085497A
:100A90000861204610BDF8B506460D460424002026
:100AA00000900F20FFF751FF0446042C28D17D4809
:100AB000006940F001007B49086135800F20FFF795
:100AC00044FF0446042C12D1B01C0090280C00995D
:100AD00008800F20FFF739FF0446052C10D071481D
:100AE000006941F6FE7108406E49086108E0052C76
:100AF00006D06C48006941F6FE71084069490861FA
:100B00002046F8BD70B505460E4604240F20FFF7B9
:100B10001CFF0446042C13D16248006940F0010018
:100B2000604908612E800F20FFF70FFF0446052C57
:100B300006D05C48006941F6FE71084059490861D9
:100B4000204670BD70B505460E4604240F20FFF701
:100B5000FCFE0446042C17D1534852498860534880
:100B600088600846006940F0100008612E800F2060
:100B7000FFF7EBFE0446052C06D04A48006941F613
:100B8000EF71084047490861204670BD2DE9F047E4
:100B900004464FF6FF763746B046B1460425E44397
:100BA000E6B2C4F30727C4F307484FEA14690F20DD
:100BB000FFF7CBFE0546042D40D13B4839498860FC
:100BC0003A4888600846006940F010000861FF2E2E
:100BD00006D03748083006800F20FFF7B6FE0546DE
:100BE000042D08D1FF2F06D031480A3007800F208E
:100BF000FFF7ABFE0546042D0AD1B8F1FF0F07D071
:100C00002B480C30A0F800800F20FFF79EFE054611
:100C1000042D0AD1B9F1FF0F07D025480E30A0F8F6
:100C200000900F20FFF791FE0546052D06D01D48C8
:100C3000006941F6EF7108401A4908612846BDE88D
:100C4000F08770B50546042440F6FF70FFF77DFE7F
:100C50000446042C49D1144812498860134888601E
:100C60000846006940F0200008610846006940F02D
:100C70004000086140F6FF70FFF767FE0446042C51
:100C80002AD10848006941F6DF710840054908612A
:100C90000846006940F0100008615DB10020044979
:100CA00008800AE00020024023016745AB89EFCDB0
:100CB00000F8FF1FA5204549088040F6FF70FFF7A8
:100CC00044FE0446052C10D04148006941F6EF71FE
:100CD00008403F49086108E0052C06D03C480069FF
:100CE00041F6DF7108403A490861204670BD2DE9A0
:100CF000F04105460E4617460424364834498860BC
:100D0000354888600F20FFF720FE0446042C19D1D7
:100D10002F48006940F010002D49086147F0F800A5
:100D2000304328432949891C08800F20FFF70DFE16
:100D30000446052C06D02648006941F6EF710840AC
:100D4000234908612046BDE8F0812148C069800838
:100D500070471F48006A704700201D49C96911F09B
:100D6000020F01D0012000E0002070470020184948
:100D7000096811F0200F01D0012000E00020704729
:100D800029B1134A12690243114B1A6104E0104A57
:100D9000126982430E4B1A617047014600200129F7
:100DA00008D10B4AD26912F0010F01D0012008E0EE
:100DB000002006E0064AD2680A4201D0012000E085
:100DC000002070470249C8607047000000F8FF1F0C
:100DD0000020024023016745AB89EFCD70470B48E7
:100DE00080470B4981F308880A480047FEE7FEE781
:100DF000FEE7FEE7FEE7FEE7FEE7FEE7FEE7FEE7CB
:100E000005480649064A074B70470000DD0D0008FB
:100E100078060020310100087800002078060020C4
:100E200078020020780200207047704700BFFEE77C
:100E300000BFFEE700BFFEE770477047704770478E
:100E400070477047704770477047704770477047EA
:100E500070477047704770477047704770477047DA
:100E600070477047704770477047704770477047CA
:100E700070477047704770477047704770477047BA
:100E800070477047704770477047704770477047AA
:100E9000704770477047704770477047704770479A
:100EA000704770477047704770477047704770478A
:100EB0007047704770477047002105E0002200E04E
:100EC000521C012AFCDB491C8142F7D370470021E8
:100ED00005E0002200E0521CC82AFCDB491C8142CC
:100EE000F7D3704710B500210BE0002205E0002386
:100EF00000E05B1CDE2BFCDB521CB2F57A6FF6DBEC
:100F0000491C8142F1D310BD30B50446002503E0F1
:100F10003C20FFF7E7FF6D1CA542F9D330BD70B54B
:100F2000044625464FF48071F848FFF75AFA4FF40B
:100F30008071F648FFF757FA4FF40071F348FFF756
:100F400052FA4FF40041F248FFF74DFA002624E030
:100F500015F0800F05D04FF48061EC48FFF741FA9F
:100F600004E04FF48061E948FFF73DFA0A20FFF7FB
:100F7000A3FF4FF40071E548FFF733FA0A20FFF7AB
:100F80009BFF4FF40071E148FFF72DFA6806050E4C
:100F90000A20FFF791FF701CC6B2082ED8DB4FF471
:100FA0008071DA48FFF71DFA70BD10B500BF7120DF
:100FB000FFF7B5FF4FF40051D548FFF7F8F90446A5
:100FC00004F0010080F00104002CF0D1C820FFF7EC
:100FD0007EFF10BD10B54FF40061CD48FFF703FA56
:100FE0004FF48041CA48FFF7FEF94FF47A70FFF7DB
:100FF0006EFF4FF48041C648FFF7F3F94FF47A7063
:10100000FFF765FF10BD70B5044625464FF48071AB
:10101000BE48FFF7E6F94FF48071BC48FFF7E3F9EB
:101020004FF40071B948FFF7DEF94FF40041B848BA
:10103000FFF7D7F9002624E015F0800F05D04FF414
:101040008061B248FFF7CDF904E04FF48061AF480A
:10105000FFF7C9F90A20FFF72FFF4FF40071AB48E3
:10106000FFF7BFF90A20FFF727FF4FF40071A748E9
:10107000FFF7B9F96806050E0A20FFF71DFF701C7F
:10108000C6B2082ED8DB4FF48071A048FFF7A9F94B
:1010900070BD10B5002404E09E49085DFFF7B3FF62
:1010A000641C43F698208442F6D30220FFF70FFF1A
:1010B00010BD10B5002404E09749085DFFF7A3FFB9
:1010C000641C43F698208442F6D30220FFF7FFFE0B
:1010D00010BD10B5002404E09049085DFFF793FFB0
:1010E000641C43F698208442F6D30220FFF7EFFEFB
:1010F00010BD10B5002404E08949085DFFF783FFA7
:10110000641C43F698208442F6D30220FFF7DFFEEA
:1011100010BD10B58348007848B91020FFF7FFFED6
:10112000FFF7B7FF1320FFF7FAFEFFF7C2FF7D4876
:101130000078012809D11020FFF7F1FEFFF7C9FF61
:101140001320FFF7ECFEFFF7D4FF10BD10B5FFF73B
:1011500041FF0620FFF7E3FE1720FFF754FF17209B
:10116000FFF751FF1720FFF74EFF0420FFF7D7FED0
:10117000FFF71BFF0020FFF7D2FE0F20FFF743FF12
:10118000FFF7C7FF1220FFF7CAFE6420FFF79FFE9C
:10119000FFF70BFF5020FFF7C2FEF720FFF733FFEA
:1011A0000220FFF7BCFEFFF700FF0720FFF7B7FEA6
:1011B000A520FFF728FF5B480078012801D100BF78
:1011C000FEE758480078401C564908706420FFF735
:1011D0007EFE10BD08B501212020FFF7FDFA4FF477
:1011E000E060ADF8000002208DF8020010208DF8BC
:1011F000030069464548FFF749F801214020FFF701
:10120000EBFA4FF44840ADF8000002208DF80200E0
:1012100010208DF8030069463D48FFF737F84FF47A
:101220000050ADF8000002208DF8020004208DF877
:10123000030069463648FFF729F801210420FFF72B
:10124000CBFA1020ADF8000002208DF8020010202B
:101250008DF8030069463448FFF718F808BD10B54B
:10126000FFF750F94FF48030FFF76CF9FFF7A9F959
:101270002E49087008460078012805D14FF4E01186
:101280000004FFF7C7F90DE00120FFF7C0F900BF28
:101290002120FFF77AF90028FAD04FF460110020DE
:1012A000FFF7B8F91020FFF713FB0220FFF7FCFA55
:1012B0000020FFF7CCF90020FFF7DBF94FF4806046
:1012C000FFF7CEF90120FFF7B1F900BF3920FFF792
:1012D0005CF90028FAD00220FFF7ABF900BFFFF756
:1012E000B1F90828FBD1012144F20500FFF774FA97
:1012F00010BD0120FFF7F6FDFFF7B1FFFFF76AFF12
:10130000002008490870FFF765FE16E00014014050
:1013100000180140B21300084A4E0008E288000895
:101320007AC30008140000200008014015000020C6
:10133000FFF70CFF6420FFF7D5FDF9E77047704712
:1013400070477047754600F029F8AE4605006946BB
:10135000534620F00700854618B020B5FFF750FD32
:10136000BDE820404FF000064FF000074FF00008A6
:101370004FF0000B21F00701AC46ACE8C009ACE827
:10138000C009ACE8C009ACE8C0098D467047044606
:10139000AFF300802046FEF712FF000000487047C0
:1013A0001800002001491820ABBEFEE7260002000D
:1013B0007047FFFFFFFFFFFFFFFFFFFFFFFFFFFF84
:1013C000FFFFFFFFFFFFFFFFFFFFFFFFFFFFFFFF2D
:1013D000FFFFFFFFFFFFFFFFFFFFFFFFFFFFFFFF1D
:1013E000FFFFFFFFFFFFFFFFFFFFFFFFFFFFFFFF0D
:1013F000FFFFFFFFFFFFFFFFFFFFFFFFFFFFFFFFFD
:10140000FFFFFFFFFFFFFFFFFFFFFFFFFFFFFFFFEC
:10141000FFFFFFFFFFFFFFFFFFFFFFFFFFFFFFFFDC
:10142000FFFFFFFFFFFFFFFFFFFFFFFFFFFFFFFFCC
:10143000FFFFFFFFFFFFFFFFFFFFFFFFFFFFFFFFBC
:10144000FFFFFFFFFFFFFFFFFFFFFFFFFFFFFFFFAC
:10145000FFFFFFFFFFFFFFFFFFFFFFFFFFFFFFFF9C
:10146000FFFFFFFFFFFFFFFFFFFFFFFFFFFFFFFF8C
:10147000FFFFFFFFFFFFFFFFFFFFFFFFFFFFFFFF7C
:10148000FFFFFFFFFFFFFFFFFFFFFFFFFFFFFFFF6C
:10149000FFFFFFFFFFFFFFFFFFFFFFFFFFFFFFFF5C
:1014A000FFFFFFFFFFFFFFFFFFFFFFFFFFFFFFFF4C
:1014B000FFFFFFFFFFFFFFFFFFFFFFFFFFFFFFFF3C
:1014C000FFFFFFFFFFFFFFFFFFFFFFFFFFFFFFCF5C
:1014D000FFFFFFFE3FFFFFFFFFFFFFFFFFFFFFFFDD
:1014E000FFFFFFFFFFFFFFFFFFFFFFFFFFFFFFFF0C
:1014F000FFFFFFFFFFFFFFFFFFFFFFFFFFFFFFFFFC
:10150000FF03FFFFFFFC0FFFFFFFFFFFFFFFFFFFDA
:10151000FFFFFFFFFFFFFFFFFFFFFFFFFFFFFFFFDB
:10152000FFFFFFFFFFFFFFFFFFFFFFFFFFFFFFFFCB
:10153000FFFFFF01FFFFFFF007FFFFFFFFFFFFFFC0
:10154000FFFFFFFFFFFFFFFFFFFFFFFFFFFFFFFFAB
:10155000FFFFFFFFFFFFFFFFFFFFFFFFFFFFFFFF9B
:10156000FFFFFFFFFE71FFFFFFF003FFFFFFFFFF25
:10157000FFFFFFFFFFFFFFFFFFFFFFFFFFFFFFFF7B
:10158000FFFFFFFFFFFFFFFFFFFFFFFFFFFFFFFF6B
:10159000FFFFFFFFFFFFFEF1FFFFFFF001FFFFFF77
:1015A000FFFFFFFFFFFFFFFFFFFFFFFFFFFFFFFF4B
:1015B000FFFFFFFFFFFFFFFFFFFFFFFFFFFFFFFF3B
:1015C000FFFFFFFFFFFFFFFFFE63FFFFFFF080FF56
:1015D000FFFFFFFFFFFFFFFFFFFFFFFFFFFFFFFF1B
:1015E000FFFFFFFFFFFFFFFFFFFFFFFFFFFFFFFF0B
:1015F000FFFFFFFFFFFFFFFFFFFFFE3FC07FFFF882
:10160000407FFFFFFFFFFFFFFFFFFFFFFFFFFFFF29
:10161000FFFFFFFFFFFFFFFFFFFFFFFFFFFFFFFFDA
:10162000FFFFFFFFFFFFFFFFFFFFFFFFFF00001FA8
:10163000FFF8407FFFFFFFFFFFFFFFFFFFFFFFFF00
:10164000FFFFFFFFFFFFFFFFFFFFFFFFFFFFFFFFAA
:10165000FFFFFFFFFFFFFFFFFFFFFFFFFFFFFF8019
:101660007F07FFF8607FFFFFFFFFFFFFFFFFFFFF28
:10167000FFFFFFFFFFFFFFFFFFFFFFFFFFFFFFFF7A
:10168000FFFFFFFFFFFFFFFFFFFFFFFFFFFFFFFF6A
:10169000FFFFFFE3FFF8303FFFFFFFFFFFFFFFFF0C
:1016A000FFFFFFFFFFFFFFFFFFFFFFFFFFFFFFFF4A
:1016B000FFFFFFFFFFFFFFFFFFFFFFFFFFFFFFFF3A
:1016C000FFFFFFFFFFF0FFF8103FFFFFFFFFFFFFEF
:1016D000FFFFFFFFFFFFFFFFFFFFFFFFFFFFFFFF1A
:1016E000FFFFFFFFFFFFFFFFFFFFFFFFFFFFFFFF0A
:1016F000FFFFFFFFFFFFFFFC7FFC183FFFFFFFFF27
:10170000FFFFFFFFFFFFFFFFFFFFFFFFFFFFFFFFE9
:10171000FFFFFFFFFFFFFFFFFFFFFFFFFFFFFFFFD9
:10172000FFFFFFFFFFFFFFFFF81E3FFC0C3FFFFF27
:10173000FFFFFFFFFFFFFFFFFFFFFFFFFFFFFFFFB9
:10174000FFFFFFFFFFFFFFFFFFFFFFFFFFFFFFFFA9
:10175000FFFFFFFFFFFFFFFFFFFFE01F8FFC0C3FBE
:10176000FFFFFFFFFFFFFFFFFFFFFFFFFFFFFFFF89
:10177000FFFFFFFFFFFFFFFFFFFFFFFFFFFFFFFF79
:10178000FFFFFFFFFFFFFFFFFFFFFFFFC00FC7FED1
:10179000007FFFFFFFFFFFFFFFFFFFFFFFFFFFFFD8
:1017A000FFFFFFFFFFFFFFFFFFFFFFFFFFFFFFFF49
:1017B000FFFFFFFFFFFFFFFFFFFFFFFFFFFF8001B6
:1017C000E3FF007FFFFFFFFFFFFFFFFFFFFFFFFFC4
:1017D000FFFFFFFFFFFFFFFFFFFFFFFFFFFFFFFF19
:1017E000FFFFFFFFFFFFFFFFFFFFFFFFFFFFFFFF09
:1017F0000000F9FF807FFFFFFFFFFFFFFFFFFFFFFC
:10180000FFFFFFFFFFFFFFFFFFFFFFFFFFFFFFFFE8
:10181000FFFFFFFFFFFFFFFFFFFFFFFFFFFFFFFFD8
:10182000FFFF0300FC7FC3FFFFFFFFFFFFFFFFFF82
:10183000FFFFFFFFFFFFFFFFFFFFFFFFFFFFFFFFB8
:10184000FFFFFFFFFFFFFFFFFFFFFFFFFFFFFFFFA8
:10185000FFFFFFFE0600FE3FF7FFFFFFFFFFFFFF5A
:10186000FFFFFFFFFFFFFFFFFFFFFFFFFFFFFFFF88
:10187000FFFFFFFFFFFFFFFFFFFFFFFFFFFFFFFF78
:10188000FFFFFFFFFFFE1C01FF0FFFFFFFFFFFFF3A
:10189000FFFFFFFFFFFFFFFFFFFFFFFFFFFFFFFF58
:1018A000FFFFFFFFFFFFFFFFFFFFFFFFFFFFFFFF48
:1018B000FFFFFFFFFFFFFFFE3001FF87FFFFFFFF7E
:1018C000FFFFFFFFFFFFFFFFFFFFFFFFFFFFFFFF28
:1018D000FFFFFFFFFFFFFFFFFFFFFFFFFFFFFFFF18
:1018E000FFFFFFFFFFFFFFFFFFFC6003FFE0FFFFC5
:1018F000FFFFFFFFFFFFFFFFFFFFFFFFFFFFFFFFF8
:10190000FFFFFFFFFFFFFFFFFFFFFFFFFFFFFFFFE7
:10191000FFFFFFFFFFFFFFFFFFFFFFFCC007FFF818
:101920003FE1FFFFFFFFFFFFFFFFFFFFFFFFFFFFA5
:10193000FFFFFFFFFFFFFFFFFFFFFFFFFFFFFFFFB7
:10194000FFFFFFFFFFFFFFFFFFFFFFFFFFFC001F89
:10195000FFFF0003FFFFFFFFFFFFFFFFFFFFFFFF92
:10196000FFFFFFFFFFFFFFFFFFFFFFFFFFFFFFFF87
:10197000FFFFFFFFFFFFFFFFFFFFFFFFFFFFFFFC7A
:10198000007FFFE1E01FFFFFFFFFFFFFFFFFFFFF03
:10199000FFFFFFFFFFFFFFFFFFFFFFFFFFFFFFFF57
:1019A000FFFFFFFFFFFFFFFFFFFFFFFFFFFFFFFF47
:1019B000FFFE03FFFF80FFFFFFFFFFFFFFFFFFFFB3
:1019C000FFFFFFFFFFFFFFFFFFFFFFFFFFFFFFFF27
:1019D000FFFFFFFFFFFFFFFFFFFFFFFFFFFFFFFF17
:1019E000FFFFFFFFFFFFFE007FFFFFFFFFFFFFFF87
:1019F000FFFFFFFFFFFFFFFFFFFFFFFFFFFFFFFFF7
:101A0000FFFFFFFFFFFFFFFFFFFFFFFFFFFFFFFFE6
:101A1000FFFFFFFFFFFFFFFFFE000FFFFFFFFFFFC6
:101A2000FFFFFFFFFFFFFFFFFFFFFFFFFFFFFFFFC6
:101A3000FFFFFFFFFFFFFFFFFFFFFFFFFFFFFFFFB6
:101A4000FFFFFFFFFFFFFFFFFFFFFC0007FFFFFFA0
:101A5000FFFFFFFFFFFFFFFFFFFFFFFFFFFFFFFF96
:101A6000FFFFFFFFFFFFFFFFFFFFFFFFFFFFFFFF86
:101A7000FFFFFFFFFFFFFFFFFFFFFFFFF80807FF6C
:101A8000FFFFFFFFFFFFFFFFFFFFFFFFFFFFFFFF66
:101A9000FFFFFFFFFFFFFFFFFFFFFFFFFFFFFFFF56
:101AA000FFFFFFFFFFFFFFFFFFFFFFFFFFFFF8301C
:101AB00007FFFFFFFFFFFFFFFFFFFFFFFFFFFFFF2E
:101AC000FFFFFFFFFFFFFFFFFFFFFFFFFFFFFFFF26
:101AD000FFFFFFFFFFFFFFFFFFFFFFFFFFFFFFFF16
:101AE000F0600FFFFFFFFFFFFFFFFFFFFFFFFFFFA4
:101AF000FFFFFFFFFFFFFFFFFFFFFFFFFFFFFFFFF6
:101B0000FFFFFFFFFFFFFFFFFFFFFFFFFFFFFFFFE5
:101B1000FFFFF0C00FFFFFFFFFFFFFFFFFFFFFFF13
:101B2000FFFFFFFFFFFFFFFFFFFFFFFFFFFFFFFFC5
:101B3000FFFFFFFFFFFFFFFFFFFFFFFFFFFFFFFFB5
:101B4000FFFFFFFFF1801FFFFFFFFFFFFFFFFFFF12
:101B5000FFFFFFFFFFFFFFFFFFFFFFFFFFFFFFFF95
:101B6000FFFFFFFFFFFFFFFFFFFFFFFFFFFFFFFF85
:101B7000FFFFFFFFFFFFF3001FFFFFFFFFFFFFFF60
:101B8000FFFFFFFFFFFFFFFFFFFFFFFFFFFFFFFF65
:101B9000FFFFFFFFFFFFFFFFFFFFFFFFFFFFFFFF55
:101BA000FFFFFFFFFFFFFFFFE2007FFFFFFFFFFFE1
:101BB000FFFFFFFFFFFFFFFFFFFFFFFFFFFFFFFF35
:101BC000FFFFFFFFFFFFFFFFFFFFFFFFFFFFFFFF25
:101BD000FFFFFFFFFFFFFFFFFFFFF001FFFFFFFF22
:101BE000FFFFFFFFFFFFFFFFFFFFFFFFFFFFFFFF05
:101BF000FFFFFFFFFFFFFFFFFFFFFFFFFFFFFFFFF5
:101C0000FFFFFFFFFFFFFFFFFFFFFFFFF00FFFFFE3
:101C1000FFFFFFFFFFFFFFFFFFFFFFFFFFFFFFFFD4
:101C2000FFFFFFFFFFFFFFFFFFFFFFFFFFFFFFFFC4
:101C3000FFFFFFFFFFFFFFFFFFFFFFFFFFFFFFFFB4
:101C4000FFFFFFFFFFFFFFFFFFFFFFFFFFFFFFFFA4
:101C5000FFFFFFFFFFFFFFFFFFFFFFFFFFFFFFFF94
:101C6000FFFFFFFFFFFFFFFFFFFFFFFFFFFFFFFF84
:101C7000FFFFFFFFFFFFFFFFFFFFFFFFFFFFFFFF74
:101C8000FFFFFFFFFFFFFFFFFFFFFFFFFFFFFFFF64
:101C9000FFFFFFFFFFFFFFFFFFFFFFFFFFFFFFFF54
:101CA000FFFFFFFFFFFFFFFFFFFFFFFFFFFFFFFF44
:101CB000FFFFFFFFFFFFFFFFFFFFFFFFFFFFFFFF34
:101CC000FFFFFFFFFFFFFFFFFFFFFFFFFFFFFFFF24
:101CD000FFFFFFFFFFFFFFFFFFFFFFFFFFFFFFFF14
:101CE000FFFFFFFFFFFFFFFFFFFFFFFFFFFFFFFF04
:101CF000FFFFFFFFFFFFFFFFFFFFFFFFFFFFFFFFF4
:101D0000FFFFFFFFFFFFFFFFFFFFFFFFFFFFFFFFE3
:101D1000FFFFFFFFFFFFFFFFFFFFFFFFFFFFFFFFD3
:101D2000FFFFFFFFFFFFFFFFFFFFFFFFFFFFFFFFC3
:101D3000FFFFFFFFFFFFFFFFFFFFFFFFFFFFFFFEB4
:101D40007FFFFFFFFFFFFFFFFFFFFFFFFFFFFFFF23
:101D5000FFFFFFFFFFFFFFFFFFFFFFFFFFFFFFFF93
:101D6000FFFFFFFFFFFFFFFFFFFFFFFFFFFFFFFF83
:101D7000FFFE7FFFFFFFFFFFFFFFFFFFFFFFFFFFF4
:101D8000FFFFFFFFFFFFFFFFFFFFFFFFFFFFFFFF63
:101D9000FFFFFFFFFFFFFFFFFFFFFFFFFFFFFFFF53
:101DA000FFFFFFFE7FFFFFFFFFFFFFFFFFFFFFFFC4
:101DB000FFFFFFFFFFFFFFFFFFFFFFFFFFFFFFFF33
:101DC000FFFFFFFFFFFFFFFFFFFFFFFFFFFFFFFF23
:101DD000FFFFFFFFFFFCFFC1FFFFFFFFFFFFFFFF54
:101DE000FFFFFFFFFFFFFFFFFFFFFFFFFFFFFFFF03
:101DF000FFFFFFFFFFFFFFFFFFFFFFFFFFFFFFFFF3
:101E0000FFFFFFFFFFFFFFFCFE003FFFFFFFFFFFA5
:101E1000FFFFFFFFFFFFFFFFFFFFFFFFFFFFFFFFD2
:101E2000FFFFFFFFFFFFFFFFFFFFFFFFFFFFFFFFC2
:101E3000FFFFFFFFFFFFFFFFFFFCFC001FFFFFFF97
:101E4000FFFFFFFFFFFFFFFFFFFFFFFFFFFFFFFFA2
:101E5000FFFFFFFFFFFFFFFFFFFFFFFFFFFFFFFF92
:101E6000FFFFFFFFFFFFFFFFFFFFFFFC7C000FFFF7
:101E7000FFFFFFFFFFFFFFFFFFFFFFFFFFFFFFFF72
:101E8000FFFFFFFFFFFFFFFFFFFFFFFFFFFFFFFF62
:101E9000FFFFFFFFFFFFFFFFFFFFFFFFFFFC7C00D7
:101EA00007FFFFFFFFFFFFFFFFFFFFFFFFFFFFFF3A
:101EB000FFFFFFFFFFFFFFFFFFFFFFFFFFFFFFFF32
:101EC000FFFFFFFFFFFFFFFFFFFFFFFFFFFFFFFC25
:101ED000783803FFFFFFFFFFFFFFFFFFFFFFFFFF5C
:101EE000FFFFFFFFFFFFFFFFFFFFFFFFFFFFFFFF02
:101EF000FFFFFFFFFFFFFFFFFFFFFFFFFFFFFFFFF2
:101F0000FFFC781C01FFFFFFFFFFFFFFFFFFFFFF4C
:101F1000FFFFFFFFFFFFFFFFFFFFFFFFFFFFFFFFD1
:101F2000FFFFFFFFFFFFFFFFFFFFFFFFFFFFFFFFC1
:101F3000FFFFFF0E780781FFFFFFFFFFFFFFFFFF9F
:101F4000FFFFFFFFFFFFFFFFFFFFFFFFFFFFFFFFA1
:101F5000FFFFFFFFFFFFFFFFFFFFFFFFFFFFFFFF91
:101F6000FFFFFFFFFE067C01E0FFFFFFFFFFFFFF1B
:101F7000FFFFFFFFFFFFFFFFFFFFFFFFFFFFFFFF71
:101F8000FFFFFFFFFFFFFFFFFFFFFFFFFFFFFFFF61
:101F9000FFFFFFFFFFFFFC073E0000FFFFFFFFFF0B
:101FA000FFFFFFFFFFFFFFFFFFFFFFFFFFFFFFFF41
:101FB000FFFFFFFFFFFFFFFFFFFFFFFFFFFFFFFF31
:101FC000FFFFFFFFFFFFFFFFF8073F0001FFFFFFDD
:101FD000FFFFFFFFFFFFFFFFFFFFFFFFFFFFFFFF11
:101FE000FFFFFFFFFFFFFFFFFFFFFFFFFFFFFFFF01
:101FF000FFFFFFFFFFFFFFFFFFFFF0019FC001FF9B
:10200000FFFFFFFFFFFFFFFFFFFFFFFFFFFFFFFFE0
:10201000FFFFFFFFFFFFFFFFFFFFFFFFFFFFFFFFD0
:10202000FFFFFFFFFFFFFFFFFFFFFFFFF0009FF03D
:1020300003FFFFFFFFFFFFFFFFFFFFFFFFFFFFFFAC
:10204000FFFFFFFFFFFFFFFFFFFFFFFFFFFFFFFFA0
:10205000FFFFFFFFFFFFFFFFFFFFFFFFFFFFF0009E
:10206000CFFFFFFFFFFFFFFFFFFFFFFFFFFFFFFFB0
:10207000FFFFFFFFFFFFFFFFFFFFFFFFFFFFFFFF70
:10208000FFFFFFFFFFFFFFFFFFFFFFFFFFFFFFFF60
:10209000E010CFFFFFFFFFFFFFFFFFFFFFFFFFFF8E
:1020A000FFFFFFFFFFFFFFFFFFFFFFFFFFFFFFFF40
:1020B000FFFFFFFFFFFFFFFFFFFFFFFFFFFFFFFF30
:1020C000FFFFE020E7FFFFFFFFFFFFFFFFFFFFFF36
:1020D000FFFFFFFFFFFFFFFFFFFFFFFFFFFFFFFF10
:1020E000FFFFFFFFFFFFFFFFFFFFFFFFFFFFFFFF00
:1020F000FFFFFFFFE060E3FFFFFFFFFFFFFFFFFFCA
:10210000FFFFFFFFFFFFFFFFFFFFFFFFFFFFFFFFDF
:10211000FFFFFFFFFFFFFFFFFFFFFFFFFFFFFFFFCF
:10212000FFFFFFFFFFFFE0C0F1FFFFFFFFFFFFFF2B
:10213000FFFFFFFFFFFFFFFFFFFFFFFFFFFFFFFFAF
:10214000FFFFFFFFFFFFFFFFFFFFFFFFFFFFFFFF9F
:10215000FFFFFFFFFFFFFFFFE0C1F8FFFFFFFFFFF3
:10216000FFFFFFFFFFFFFFFFFFFFFFFFFFFFFFFF7F
:10217000FFFFFFFFFFFFFFFFFFFFFFFFFFFFFFFF6F
:10218000FFFFFFFFFFFFFFFFFFFFE181FC7FFFFF7E
:10219000FFFFFFFFFFFFFFFFFFFFFFFFFFFFFFFF4F
:1021A000FFFFFFFFFFFFFFFFFFFFFFFFFFFFFFFF3F
:1021B000FFFFFFFFFFFFFFFFFFFFFFFFE303FE3F08
:1021C000FFFFFFFFFFFFFFFFFFFFFFFFFFFFFFFF1F
:1021D000FFFFFFFFFFFFFFFFFFFFFFFFFFFFFFFF0F
:1021E000FFFFFFFFFFFFFFFFFFFFFFFFFFFFE20714
:1021F000FF3FFFFFFFFFFFFFFFFFFFFFFFFFFFFFAF
:10220000FFFFFFFFFFFFFFFFFFFFFFFFFFFFFFFFDE
:10221000FFFFFFFFFFFFFFFFFFFFFFFFFFFFFFFFCE
:10222000E40FFF9FFFFFFFFFFFFFFFFFFFFFFFFF29
:10223000FFFFFFFFFFFFFFFFFFFFFFFFFFFFFFFFAE
:10224000FFFFFFFFFFFFFFFFFFFFFFFFFFFFFFFF9E
:10225000FFFFE03FFFCFFFFFFFFFFFFFFFFFFFFF9D
:10226000FFFFFFFFFFFFFFFFFFFFFFFFFFFFFFFF7E
:10227000FFFFFFFFFFFFFFFFFFFFFFFFFFFFFFFF6E
:10228000FFFFFFFFF1FFFFE7FFFFFFFFFFFFFFFF84
:10229000FFFFFFFFFFFFFFFFFFFFFFFFFFFFFFFF4E
:1022A000FFFFFFFFFFFFFFFFFFFFFFFFFFFFFFFF3E
:1022B000FFFFFFFFFFFFFFFFFFF3FFFFFFFFFFFF3A
:1022C000FFFFFFFFFFFFFFFFFFFFFFFFFFFFFFFF1E
:1022D000FFFFFFFFFFFFFFFFFFFFFFFFFFFFFFFF0E
:1022E000FFFFFFFFFFFFFFFFFFFFFFF9FFFFFFFF04
:1022F000FFFFFFFFFFFFFFFFFFFFFFFFFFFFFFFFEE
:10230000FFFFFFFFFFFFFFFFFFFFFFFFFFFFFFFFDD
:10231000FFFFFFFFFFFFFFFFFFFFFFFFFE3CFFFF91
:10232000FFFFFFFFFFFFFFFFFFFFFFFFFFFFFFFFBD
:10233000FFFFFFFFFFFFFFFFFFFFFFFFFFFFFFFFAD
:10234000FFFFFFFFFFFFFFFFFFFFFFFFFFFFF81E85
:102350007FFFFFFFFFFFFFFFFFFFFFFFFFFFFFFF0D
:10236000FFFFFFFFFFFFFFFFFFFFFFFFFFFFFFFF7D
:10237000FFFFFFFFFFFFFFFFFFFFFFFFFFFFFFFF6D
:10238000F01E3FFFFFFFFFFFFFFFFFFFFFFFFFFF0D
:10239000FFFFFFFFFFFFFFFFFFFFFFFFFFFFFFFF4D
:1023A000FFFFFFFFFFFFFFFFFFFFFFFFFFFFFFFF3D
:1023B000FFFFE00F3FFFFFFFFFFFFFFFFFFFFFFFFC
:1023C000FFFFFFFFFFFFFFFFFFFFFFFFFFFFFFFF1D
:1023D000FFFFFFFFFFFFFFFFFFFFFFFFFFFFFFFF0D
:1023E000FFFFFFFFE0039FFFFFFFFFFFFFFFFFFF78
:1023F000FFFFFFFFFFFFFFFFFFFFFFFFFFFFFFFFED
:10240000FFFFFFFFFFFFFFFFFFFFFFFFFFFFFFFFDC
:10241000FFFFFFFFFFFFC0039FFFFFFFFFFFFFFF67
:10242000FFFFFFFFFFFFFFFFFFFFFFFFFFFFFFFFBC
:10243000FFFFFFFFFFFFFFFFFFFFFFFFFFFFFFFFAC
:10244000FFFFFFFFFFFFFFFFC003CFFFFFFFFFFF07
:10245000FFFFFFFFFFFFFFFFFFFFFFFFFFFFFFFF8C
:10246000FFFFFFFFFFFFFFFFFFFFFFFFFFFFFFFF7C
:10247000FFFFFFFFFFFFFFFFFFFFC043CFFFFFFF97
:10248000FFFFFFFFFFFFFFFFFFFFFFFFFFFFFFFF5C
:10249000FFFFFFFFFFFFFFFFFFFFFFFFFFFFFFFF4C
:1024A000FFFFFFFFFFFFFFFFFFFFFFFF80C3CFFF27
:1024B000FFFFFFFFFFFFFFFFFFFFFFFFFFFFFFFF2C
:1024C000FFFFFFFFFFFFFFFFFFFFFFFFFFFFFFFF1C
:1024D000FFFFFFFFFFFFFFFFFFFFFFFFFFFF808307
:1024E000CFFFFFFFFFFFFFFFFFFFFFFFFFFFFFFF2C
:1024F000FFFFFFFFFFFFFFFFFFFFFFFFFFFFFFFFEC
:10250000FFFFFFFFFFFFFFFFFFFFFFFFFFFFFFFFDB
:102510008103CFFFFFFFFFFFFFFFFFFFFFFFFFFF75
:10252000FFFFFFFFFFFFFFFFFFFFFFFFFFFFFFFFBB
:10253000FFFFFFFFFFFFFFFFFFFFFFFFFFFFFFFFAB
:10254000FFFF8307CFFFFFFFFFFFFFFFFFFFFFFF3F
:10255000FFFFFFFFFFFFFFFFFFFFFFFFFFFFFFFF8B
:10256000FFFFFFFFFFFFFFFFFFFFFFFFFFFFFFFF7B
:10257000FFFFFFFF8607CFFFFFFFFFFFFFFFFFFF0C
:10258000FFFFFFFFFFFFFFFFFFFFFFFFFFFFFFFF5B
:10259000FFFFFFFFFFFFFFFFFFFFFFFFFFFFFFFF4B
:1025A000FFFFFFFFFFFF840FCFFFFFFFFFFFFFFFD6
:1025B000FFFFFFFFFFFFFFFFFFFFFFFFFFFFFFFF2B
:1025C000FFFFFFFFFFFFFFFFFFFFFFFFFFFFFFFF1B
:1025D000FFFFFFFFFFFFFFFF8C1FCFFFFFFFFFFF8E
:1025E000FFFFFFFFFFFFFFFFFFFFFFFFFFFFFFFFFB
:1025F000FFFFFFFFFFFFFFFFFFFFFFFFFFFFFFFFEB
:10260000FFFFFFFFFFFFFFFFFFFF883FCE7FFFFFC2
:10261000FFFFFFFFFFFFFFFFFFFFFFFFFFFFFFFFCA
:10262000FFFFFFFFFFFFFFFFFFFFFFFFFFFFFFFFBA
:10263000FFFFFFFFFFFFFFFFFFFFFFFF80FFCC3F1C
:10264000FFFFFFFFFFFFFFFFFFFFFFFFFFFFFFFF9A
:10265000FFFFFFFFFFFFFFFFFFFFFFFFFFFFFFFF8A
:10266000FFFFFFFFFFFFFFFFFFFFFFFFFFFFC7FFB2
:10267000C81FFFFFFFFFFFFFFFFFFFFFFFFFFFFF81
:10268000FFFFFFFFFFFFFFFFFFFFFFFFFFFFFFFF5A
:10269000FFFFFFFFFFFFFFFFFFFFFFFFFFFFFFFF4A
:1026A000FFFFC99FFFFFFFFFFFFFFFFFFFFFFFFFD0
:1026B000FFFFFFFFFFFFFFFFFFFFFFFFFFFFFFFF2A
:1026C000FFFFFFFFFFFFFFFFFFFFFFFFFFFFFFFF1A
:1026D000FFFFFFFFCF9FFFFFFFFFFFFFFFFFFFFF9A
:1026E000FFFFFFFFFFFFFFFFFFFFFFFFFFFFFFFFFA
:1026F000FFFFFFFFFFFFFFFFFFFFFFFFFFFFFFFFEA
:10270000FFFFFFFFFFFFC79FFFFFFFFFFFFFFFFF71
:10271000FFFFFFFFFFFFFFFFFFFFFFFFFFFFFFFFC9
:10272000FFFFFFFFFFFFFFFFFFFFFFFFFFFFFFFFB9
:10273000FFFFFFFFFFFFFFFFE33FFFFFFFFFFFFF85
:10274000FFFFFFFFFFFFFFFFFFFFFFFFFFFFFFFF99
:10275000FFFFFFFFFFFFFFFFFFFFFFFFFFFFFFFF89
:10276000FFFFFFFFFFFFFFFFFFFFF07FFFFFFFFF08
:10277000FFFFFFFFFFFFFFFFFFFFFFFFFFFFFFFF69
:10278000FFFFFFFFFFFFFFFFFFFFFFFFFFFFFFFF59
:10279000FFFFFFFFFFFFFFFFFFFFFFFFFDFFFFFF4B
:1027A000FFFFFFFFFFFFFFFFFFFFFFFFFFFFFFFF39
:1027B000FFFFFFFFFFFFFFFFFFFFFFFFFFFFFFFF29
:1027C000FFFFFFFFFFFFFFFFFFFFFFFFFFFFFFFF19
:1027D000FFFFFFFFFFFFFFFFFFFFFFFFFFFFFFFF09
:102AC000FFFFFFFFFFFFFFC003FFFFFFFFFFFF0F41
:102AD000FFFFCF87FFFFFFFFFFFFFFFFFFFFFFFFAE
:102AE000FFFFFFFFFFFFFFFFFFFFFFFFFFFFFFFFF6
:102AF000FFFFFFFFFFFFFFFFFFC001FFFFFFFFFF23
:102B0000FF0FFFFF8F87FFFFFFFFFFFFFFFFFFFFAD
:102B1000FFFFFFFFFFFFFFFFFFFFFFFFFFFFFFFFC5
:102B2000FFFFFFFFFFFFFFFFFFFFFFC000FFFFFFF3
:102B3000FFFFFF0FFFFF0F87FFFFFFFFFFFFFFFFFD
:102B4000FFFFFFFFFFFFFFFFFFFFFFFFFFFFFFFF95
:102B5000FFFFFFFFFFFFFFFFFFFFFFFFFFC000FFC3
:102B6000FFFFFFFFFF0FFFFF0F87FFFFFFFFFFFFCD
:102B7000FFFFFFFFFFFFFFFFFFFFFFFFFFFFFFFF65
:102B8000FFFFFFFFFFFFFFFFFFFFFFFFFFFFFFC391
:102B9000E0FC0FE03FE07F0F0F0C0387F03F841F46
:102BA000FFFFFFFFFFFFFFFFFFFFFFFFFFFFFFFF35
:102BB000FFFFFFFFFFFFFFFFFFFFFFFFFFFFFFFF25
:102BC000FFC3F0F807C00F801F0F0F0C0387C00F63
:102BD000800FFFFFFFFFFFFFFFFFFFFFFFFFFFFF74
:102BE000FFFFFFFFFFFFFFFFFFFFFFFFFFFFFFFFF5
:102BF000FFFFFFC3E0F003800F000F0F0F0C0387F0
:102C000080078007FFFFFFFFFFFFFFFFFFFFFFFFC2
:102C1000FFFFFFFFFFFFFFFFFFFFFFFFFFFFFFFFC4
:102C2000FFFFFFFFFFC000E0038707000F0F0F0C3F
:102C3000038780078007FFFFFFFFFFFFFFFFFFFF06
:102C4000FFFFFFFFFFFFFFFFFFFFFFFFFFFFFFFF94
:102C5000FFFFFFFFFFFFFFC001E0C1818606070FF6
:102C60000F0F0F8703038307FFFFFFFFFFFFFFFF28
:102C7000FFFFFFFFFFFFFFFFFFFFFFFFFFFFFFFF64
:102C8000FFFFFFFFFFFFFFFFFFC003E001803E0FDC
:102C9000070F0F0F0F8707838787FFFFFFFFFFFFD8
:102CA000FFFFFFFFFFFFFFFFFFFFFFFFFFFFFFFF34
:102CB000FFFFFFFFFFFFFFFFFFFFFFC007E00180F7
:102CC0000E1F870F0F0F0F870FC38787FFFFFFFFB1
:102CD000FFFFFFFFFFFFFFFFFFFFFFFFFFFFFFFF04
:102CE000FFFFFFFFFFFFFFFFFFFFFFFFFFC303E04B
:102CF00001C0061F870F0F0F0F870FC38787FFFFC6
:102D0000FFFFFFFFFFFFFFFFFFFFFFFFFFFFFFFFD3
:102D1000FFFFFFFFFFFFFFFFFFFFFFFFFFFFFFC3FF
:102D200083E1FFF8060F070F0F0F0F8707838787D1
:102D3000FFFFFFFFFFFFFFFFFFFFFFFFFFFFFFFFA3
:102D4000FFFFFFFFFFFFFFFFFFFFFFFFFFFFFFFF93
:102D5000FFC3C1E0E1870606070F060F0F870303D5
:102D60008787FFFFFFFFFFFFFFFFFFFFFFFFFFFF63
:102D7000FFFFFFFFFFFFFFFFFFFFFFFFFFFFFFFF63
:102D8000FFFFFFC3E0F0018387000F0F000F0387F1
:102D900080078787FFFFFFFFFFFFFFFFFFFFFFFFAA
:102DA000FFFFFFFFFFFFFFFFFFFFFFFFFFFFFFFF33
:102DB000FFFFFFFFFFC3E0F003C007000F0F000F8E
:102DC000038780078787FFFFFFFFFFFFFFFFFFFFEE
:102DD000FFFFFFFFFFFFFFFFFFFFFFFFFFFFFFFF03
:102DE000FFFFFFFFFFFFFFC3F07803C00F801F0F3F
:102DF000800F0387C00F8787FFFFFFFFFFFFFFFFE5
:102E0000FFFFFFFFFFFFFFFFFFFFFFFFFFFFFFFFD2
:102E1000FFFFFFFFFFFFFFFFFFC3F07C0FF03FE06E
:102E20007F0FC10F8387F03F8787FFFFFFFFFFFF03
:102E3000FFFFFFFFFFFFFFFFFFFFFFFFFFFFFFFFA2
:102E4000FFFFFFFFFFFFFFFFFFFFFFFFFFFFFFFF92
:102E5000FFFFFFFFFFFFFFFFFFFFFFFFFFFFFFFF82
:102E6000FFFFFFFFFFFFFFFFFFFFFFFFFFFFFFFF72
:102E7000FFFFFFFFFFFFFFFFFFFFFFFFFFFFFFFF62
:102E8000FFFFFFFFFFFFFFFFFFFFFFFFFFFFFFFF52
:102E9000FFFFFFFFFFFFFFFFFFFFFFFFFFFFFFFF42
:102EA000FFFFFFFFFFFFFFFFFFFFFFFFFFFFFFFF32
:102EB000FFFFFFFFFFFFFFFFFFFFFFFFFFFFFFFF22
:102EC000FFFFFFFFFFFFFFFFFFFFFFFFFFFFFFFF12
:102ED000FFFFFFFFFFFFFFFFFFFFFFFFFFFFFFFF02
:102EE000FFFFFFFFFFFFFFFFFFFFFFFFFFFFFFFFF2
:102EF000FFFFFFFFFFFFFFFFFFFFFFFFFFFFFFFFE2
:102F0000FFFFFFFFFFFFFFFFFFFFFFFFFFFFFFFFD1
:102F1000FFFFFFFFFFFFFFFFFFFFFFFFFFFFFFFFC1
:102F2000FFFFFFFFFFFFFFFFFFFFFFFFFFFFFFFFB1
:102F3000FFFFFFFFFFFFFFFFFFFFFFFFFFFFFFFFA1
:102F4000FFFFFFFFFFFFFFFFFFFFFFFFFFFFFFFF91
:102F5000FFFFFFFFFFFFFFFFFFFFFFFFFFFFFFFF81
:102F6000FFFFFFFFFFFFFFFFFFFFFFFFFFFFFFFF71
:102F7000FFFFFFFFFFFFFFFFFFFFFFFFFFFFFFFF61
:102F8000FFFFFFFFFFFFFFFFFFFFFFFFFFFFFFFF51
:102F9000FFFFFFFFFFFFFFFFFFFFFFFFFFFFFFFF41
:102FA000FFFFFFFFFFFFFFFFFFFFFFFFFFFFFFFF31
:102FB000FFFFFFFFFFFFFFFFFFFFFFFFFFFFFFFF21
:102FC000FFFFFFFFFFFFFFFFFFFFFFFFFFFFFFFF11
:102FD000FFFFFFFFFFFFFFFFFFFFFFFE1FC0FF031D
:102FE000FFFFF03FC0FF03FFFFFFFFFFFFFFFFFFFB
:102FF000FFFFFFFFFFFFFFFFFFFFFFFFFFFFFFFFE1
:10300000FFFFFFFFFFFFFFFFFFFFFFFFFFFC1F8032
:103010007E01FFFFC01F807E01FFFFFFFFFFFFFF5C
:10302000FFFFFFFFFFFFFFFFFFFFFFFFFFFFFFFFB0
:10303000FFFFFFFFFFFFFFFFFFFFFFFFFFFFFFFCA3
:103040001F003C00FFFFC00F003C00FFFFFFFFFF21
:10305000FFFFFFFFFFFFFFFFFFFFFFFFFFFFFFFF80
:10306000FFFFFFFFFFFFFFFFFFFFFFFFFFFFFFFF70
:10307000FFF81F003C00FFFF800F003C00FFFFFF38
:10308000FFFFFFFFFFFFFFFFFFFFFFFFFFFFFFFF50
:10309000FFFFFFFFFFFFFFFFFFFFFFFFFFFFFFFF40
:1030A000FFFFFFF01E0C183061E1830E0C18307F1B
:1030B000FFFFFFFFFFFFFFFFFFFFFFFFFFFFFFFF20
:1030C000FFFFFFFFFFFFFFFFFFFFFFFFFFFFFFFF10
:1030D000FFFFFFFFFFF01E1E187860C1860E1E184E
:1030E000787FFFFFFFFFFFFFFFFFFFFFFFFFFFFFF7
:1030F000FFFFFFFFFFFFFFFFFFFFFFFFFFFFFFFFE0
:10310000FFFFFFFFFFFFFFE01E1E187860C1F80EF3
:103110001E18787FFFFFFFFFFFFFFFFFFFFFFFFF8E
:10312000FFFFFFFFFFFFFFFFFFFFFFFFFFFFFFFFAF
:10313000FFFFFFFFFFFFFFFFFFC01E1E1878700399
:10314000F81E1E18787FFFFFFFFFFFFFFFFFFFFF46
:10315000FFFFFFFFFFFFFFFFFFFFFFFFFFFFFFFF7F
:10316000FFFFFFFFFFFFFFFFFFFFFFC21E1E1878DC
:103170007807F80E1E18787FFFFFFFFFFFFFFFFFA5
:10318000FFFFFFFFFFFFFFFFFFFFFFFFFFFFFFFF4F
:10319000FFFFFFFFFFFFFFFFFFFFFFFFFF821E1E7E
:1031A00018787807F8061E18787FFFFFFFFFFFFFEB
:1031B000FFFFFFFFFFFFFFFFFFFFFFFFFFFFFFFF1F
:1031C000FFFFFFFFFFFFFFFFFFFFFFFFFFFFFF0608
:1031D0001E1E18787C0FFF061E18787FFFFFFFFF6A
:1031E000FFFFFFFFFFFFFFFFFFFFFFFFFFFFFFFFEF
:1031F000FFFFFFFFFFFFFFFFFFFFFFFFFFFFFFFFDF
:10320000FF00061E18787C0F87861E18787FFFFF48
:10321000FFFFFFFFFFFFFFFFFFFFFFFFFFFFFFFFBE
:10322000FFFFFFFFFFFFFFFFFFFFFFFFFFFFFFFFAE
:10323000FFFFFF00061E1878780787861E18787F24
:10324000FFFFFFFFFFFFFFFFFFFFFFFFFFFFFFFF8E
:10325000FFFFFFFFFFFFFFFFFFFFFFFFFFFFFFFF7E
:10326000FFFFFFFFFF00060C1830780783060C18DD
:10327000307FFFFFFFFFFFFFFFFFFFFFFFFFFFFFAD
:10328000FFFFFFFFFFFFFFFFFFFFFFFFFFFFFFFF4E
:10329000FFFFFFFFFFFFFF0007003C00F003800778
:1032A000003C00FFFFFFFFFFFFFFFFFFFFFFFFFFEF
:1032B000FFFFFFFFFFFFFFFFFFFFFFFFFFFFFFFF1E
:1032C000FFFFFFFFFFFFFFFFFFFE1F003C00E0C10D
:1032D000C00F003C00FFFFFFFFFFFFFFFFFFFFFFEE
:1032E000FFFFFFFFFFFFFFFFFFFFFFFFFFFFFFFFEE
:1032F000FFFFFFFFFFFFFFFFFFFFFFFE1F807E01BD
:10330000E0C1E01F807E01FFFFFFFFFFFFFFFFFF27
:10331000FFFFFFFFFFFFFFFFFFFFFFFFFFFFFFFFBD
:10332000FFFFFFFFFFFFFFFFFFFFFFFFFFFE1FC0CD
:10333000FF03E1E1F03FC0FF03FFFFFFFFFFFFFFDF
:10334000FFFFFFFFFFFFFFFFFFFFFFFFFFFFFFFF8D
:10335000FFFFFFFFFFFFFFFFFFFFFFFFFFFFFFFF7D
:10336000FFFFFFFFFFFFFFFFFFFFFFFFFFFFFFFF6D
:10337000FFFFFFFFFFFFFFFFFFFFFFFFFFFFFFFF5D
:10338000FFFFFFFFFFFFFFFFFFFFFFFFFFFFFFFF4D
:10339000FFFFFFFFFFFFFFFFFFFFFFFFFFFFFFFF3D
:1033A000FFFFFFFFFFFFFFFFFFFFFFFFFFFFFFFF2D
:1033B000FFFFFFFFFFFFFFFFFFFFFFFFFFFFFFFF1D
:1033C000FFFFFFFFFFFFFFFFFFFFFFFFFFFFFFFF0D
:1033D000FFFFFFFFFFFFFFFFFFFFFFFFFFFFFFFFFD
:1033E000FFFFFFFFFFFFFFFFFFFFFFFFFFFFFFFFED
:1033F000FFFFFFFFFFFFFFFFFFFFFFFFFFFFFFFFDD
:10340000FFFFFFFFFFFFFFFFFFFFFFFFFFFFFFFFCC
:10341000FFFFFFFFFFFFFFFFFFFFFFFFFFFFFFFFBC
:10342000FFFFFFFFFFFFFFFFFFFFFFFFFFFFFFFFAC
:10343000FFFFFFFFFFFFFFFFFFFFFFFFFFFFFFFF9C
:10344000FFFFFFFFFFFFFFFFFFFFFFFFFFFFFFFF8C
:10345000FFFFFFFFFFFFFFFFFFFFFFFFFFFFFFFF7C
:10346000FFFFFFFFFFFFFFFFFFFFFFFFFFFFFFFF6C
:10347000FFFFFFFFFFFFFFFFFFFFFFFFFFFFFFFF5C
:10348000FFFFFFFFFFFFFFFFFFFFFFFFFFFFFFFF4C
:10349000FFFFFFFFFFFFFFFFFFFFFFFFFFFFFFFF3C
:1034A000FFFFFFFFFFFFFFFFFFFFFFFFFFFFFFFF2C
:1034B000FFFFFFFFFFFFFFFFFFFFFFFFFFFFFFFF1C
:1034C000FFFFFFFFFFFFFFFFFFFFFFFFFFFFFFFF0C
:1034D000FFFFFFFFFFFFFFFFFFFFFFFFFFFFFFFFFC
:1034E000FFFFFFFFFFFFFFFFFFFFFFFFFFFFFFF8F3
:1034F0000FE003F0FFFFFFFFFFFFFFFFFFFFFFFFF6
:10350000FFFFFFFFFFFFFFFFFFFFFFFFFFFFFFFFCB
:10351000FFFFFFFFFFFFFFFFFFFFFFFFFFFFFFFFBB
:10352000FFE003E000F0FFFFFFFFFFFFFFFFFFFFF3
:10353000FFFFFFFFFFFFFFFFFFFFFFFFFFFFFFFF9B
:10354000FFFFFFFFFFFFFFFFFFFFFFFFFFFFFFFF8B
:10355000FFFFFFE003E000F0FFFFFFFFFFFFFFFFC3
:10356000FFFFFFFFFFFFFFFFFFFFFFFFFFFFFFFF6B
:10357000FFFFFFFFFFFFFFFFFFFFFFFFFFFFFFFF5B
:10358000FFFFFFFFFFC001E00070FFFFFFFFFFFF35
:10359000FFFFFFFFFFFFFFFFFFFFFFFFFFFFFFFF3B
:1035A000FFFFFFFFFFFFFFFFFFFFFFFFFFFFFFFF2B
:1035B000FFFFFFFFFFFFFFC1C1E1F070FFFFFFFF53
:1035C000FFFFFFFFFFFFFFFFFFFFFFFFFFFFFFFF0B
:1035D000FFFFFFFFFFFFFFFFFFFFFFFFFFFFFFFFFB
:1035E000FFFFFFFFFFFFFFFFFFC1E1E1F870FFFFFB
:1035F000FFFFFFFFFFFFFFFFFFFFFFFFFFFFFFFFDB
:10360000FFFFFFFFFFFFFFFFFFFFFFFFFFFFFFFFCA
:10361000FFFFFFFFFFFFFFFFFFFFFFC03FE1F8706D
:10362000FFFFFFFFFFFFFFFFFFFFFFFFFFFFFFFFAA
:10363000FFFFFFFFFFFFFFFFFFFFFFFFFFFFFFFF9A
:10364000FFFFFFFFFFFFFFFFFFFFFFFFFFC007E1DF
:10365000F070FFFFFFFFFFFFFFFFFFFFFFFFFFFF18
:10366000FFFFFFFFFFFFFFFFFFFFFFFFFFFFFFFF6A
:10367000FFFFFFFFFFFFFFFFFFFFFFFFFFFFFFE079
:1036800001E00070FFFFFFFFFFFFFFFFFFFFFFFFF5
:10369000FFFFFFFFFFFFFFFFFFFFFFFFFFFFFFFF3A
:1036A000FFFFFFFFFFFFFFFFFFFFFFFFFFFFFFFF2A
:1036B000FFF801E000F0FFFFFFFFFFFFFFFFFFFF4C
:1036C000FFFFFFFFFFFFFFFFFFFFFFFFFFFFFFFF0A
:1036D000FFFFFFFFFFFFFFFFFFFFFFFFFFFFFFFFFA
:1036E000FFFFFFFF00E001F0FFFFFFFFFFFFFFFF15
:1036F000FFFFFFFFFFFFFFFFFFFFFFFFFFFFFFFFDA
:10370000FFFFFFFFFFFFFFFFFFFFFFFFFFFFFFFFC9
:10371000FFFFFFFFFF87E0E003F0FFFFFFFFFFFF7A
:10372000FFFFFFFFFFFFFFFFFFFFFFFFFFFFFFFFA9
:10373000FFFFFFFFFFFFFFFFFFFFFFFFFFFFFF0F89
:10374000FFFFFFFFFFFFFF83F0E1FFF0FFFFFFFF41
:10375000FFFFFFFFFFFFFFFFFFFFFFFFFFFFFFFF79
:10376000FFFFFFFFFFFFFFFFFFFFFFFFFFFFFFFF69
:10377000FC47FFFFFFFFFFFFFF81E0E1FFF0FFFFDE
:10378000FFFFFFFFFFFFFFFFFFFFFFFFFFFFFFFF49
:10379000FFFFFFFFFFFFFFFFFFFFFFFFFFFFFFFF39
:1037A000FFFFFCE3FFFFFFFFFFFFFFC000E1FFF0B3
:1037B000FFFFFFFFFFFFFFFFFFFFFFFFFFFFFFFF19
:1037C000FFFFFFFFFFFFFFFFFFFFFFFFFFFFFFFF09
:1037D000FFFFFFFFF8F3FFFFFFFFFFFFFFC001E167
:1037E000FFF0FFFFFFFFFFFFFFFFFFFFFFFFFFFFF8
:1037F000FFFFFFFFFFFFFFFFFFFFFFFFFFFFFFFFD9
:10380000FFFFFFFFFFFFF8D3FFFFFFFFFFFFFFE01A
:1038100003E1FFF0FFFFFFFFFFFFFFFFFFFFFFFFE1
:10382000FFFFFFFFFFFFFFFFFFFFFFFFFFFFFFFFA8
:10383000FFFFFFFFFFFFFFFFFC13FFFFFFFFFFFF87
:10384000FFF807E1FFF0FFFFFFFFFFFFFFFFFFFFB4
:10385000FFFFFFFFFE7FFFFFFFFFFFFFFFFFFFFFF9
:10386000FFFFFFFFFFFFFFFFFFFFFC13FFFFFFFF57
:10387000FFFFFFFFFFFFFFFFFFFFFFFFFFFFFFFF58
:10388000FFFFFFFFFFFFFE7FFFFFFFFFFFFFFFFFC9
:10389000FFFFFFFFFFFFFFFFFFFFFFFFFE33FFC341
:1038A000FFFFFFFFFFFFFFFFFFFFFFFFFFFFFFFF28
:1038B000FFFFFFFFFFFFFFFFFE7FFFFFFFFFFFFF99
:1038C000FFFFFFFFFFFFFFFFFFFFFFFFFFFFFFF314
:1038D000FE01FFFFFFFFFFFFFFFFFFFFFFFFFFFFF7
:1038E000FFFFFFFFFFFFFFFFFFFFF80FFFFFFFFFDF
:1038F000FFFFFFFFFFFFFFFFFFFFFFFFFFFFFFFFD8
:10390000FFF3F811FFFFFFFFFFFFFFFFFFFFFFFFC8
:10391000FFFFFFFFFFFFFFFFFFFFFFFFE001FFFFD4
:10392000FFFFFFFFFFFFFFFFFFFFFFFFFFFFFFFFA7
:10393000FFFFFFF7F031FFFFFFFFFFFFFFFFFFFF7C
:10394000FFFFFFFFFFFFFFFFFFFFFFFFFFFFC24083
:10395000FFFFFFFFFFFFFFFFFFFFFFFFFFFFFFFF77
:10396000FFFFFFFFFFE7E061FFFFFFFFFFFFFFFF3C
:10397000FFFFFFFFFFFFFFFFFFFFFFFFFFFFFFFF57
:103980008640FFFFFFFFFFFFFFFFFFFFFFFFFFFF7F
:10399000FFFFFFFFFFFFFFE7C0C1FFFFFFFFFFFFCC
:1039A000FFFFFFFFFFFFFFFFFFFFFFFFFFFFFFFF27
:1039B000FFFF8640FFFFFFFFFFFFFFFFFFFFFFFF4F
:1039C000FFFFFFFFFFFFFFFFFFE7C081FFFFFFFFDC
:1039D000FFFFFFFFFFFFFFFFFFFFFFFFFFFFFFFFF7
:1039E000FFFFFFFF8640FFFFFFFFFFFFFFFFFFFF1F
:1039F000FFFFFFF00FFFC07FFFFFFFE78181FFFFA9
:103A0000FFFFFFC3FFFFF3FFFFFFF03FFFFFFFFFDD
:103A1000FFFFFFFFFFFF8261FFFFFFFFFFFFFFFFD1
:103A2000FFFFFFFFFFC003FE000FFFFFFFE7830361
:103A3000FFFFFFFFFFC3FFFFE3FFFFFFE03FFFFFCD
:103A4000FFFFFFFFFFFFFFFF801FFFFFFFFFFFFFE5
:103A5000FFFFFFFFFFFFFF8381FC0E07FFFFFFE774
:103A60008203FFFFFFFFFFC3FFFFC3FFFFFFE03F36
:103A7000FFFFFFFFFFFFFFFFFFFF8003FFFFFFFFD1
:103A8000FFFFFFFFFFFFFFFFFF03C0F81F03FFFF64
:103A9000FFE38003FFFFFFFFFFC3FFFFC3FFFFFF45
:103AA000E1FFFFFFFFFFFFFFFFFFFFFFC001FFFF81
:103AB000FFFFFFFFFFFFFFFFFFFFFF03C0F81F0334
:103AC000FFFFFFF38007FFFFFFFFFFC3C20F00F8F8
:103AD0001F8061FC07F03FC0FFFFFFFFFFFFC0003A
:103AE000FFFFFFFFFFFFFFFFFFFFFFFFFF03C0F030
:103AF0003F81FFFFFFF38007FFFFFFFFFFC3C0070A
:103B000000F00F80007003E00F807FFFFFFFFFFFDA
:103B1000F000FFFFFFFFFFFFFFFFFFFFFFFFFF03BF
:103B2000C0F03F81FFFFFFF9E00FFFFFFFFFFFC382
:103B3000C00300E00780007001C00F003FFFFFFFDF
:103B4000FFFF8600FFFFFFFFFFFFFFFFFFFFFFFFFD
:103B5000FF8780F03F81FFFFFFF8F00FFFFFFFFFBF
:103B6000FFC3C00300C007800060C18006003FFFA4
:103B7000FFFFFFFF0260FFFFFFFFFFFFFFFFFFFFF1
:103B8000FFC07FFF01F03F81FFFFFFFCF01FFFFF41
:103B9000FFFFFFC3C183C3C18383E1E1E183060C5F
:103BA0001FFFFFFFFFFF0270FFFFFFFFFFFFFFFF91
:103BB000FFFFFF803FF803F03F81FFFFFFFE703FF4
:103BC000FFFFFFFFFFC3C3C3C3C00387E1FF01873C
:103BD0008E001FFFFFFFFFFF0270FFFFFFFFFFFFD1
:103BE000FFFFFFFFFF001FF803F03F81FFFFFFFE15
:103BF00038FFFFFFFFFFFFC3C3C3C3C00387E1F864
:103C00000187FE001FFFFFFFFFFF0261FFFFFFFFB5
:103C1000FFFFFFFFFFFFFF001FF800F03F81FFFFE6
:103C2000FFFF3FFFFFFFFFFFFFC3C3C3C3C0038707
:103C3000E1F00187FE001FFFFFFFFFFF8241FFFF52
:103C4000FFFFFFFFFFFFFFFFFF001FFF80F81F03C5
:103C5000FFFFFFFF9FFFFFFFFFFFFFC3C3C3C3C300
:103C6000FF87E1E021878E1FFFFFFFFFFFFFC003FB
:103C7000FFFFFFFFFFFFFFFFFFFFFF001FFFC078F9
:103C80001F03FFFFFFFFCFFFFFFFFFFFFFC3C3C304
:103C9000C3C1C387E1E1E183060E1FFFFFFFFFFF02
:103CA000F00FFFFFFFFFFFFFFFFFFFFFFF001F0FF2
:103CB000E07C0E07FFFFFFFFC7FFFF7FFFFFFFC393
:103CC000C3C3C0E00387E1E0C18007001FFFFFFF1F
:103CD000FFFFFE7FFFFFFFFFFFFFFFFFFFFFFF0074
:103CE0001E07E07E000FFFFFFFFFE7FFF01FFFFF53
:103CF000FFC3C3C3C0E00787E1E001C00F003FFF7F
:103D0000FFFFFFFFFE7FFFFFFFFFFFFFFFFFFFFF44
:103D1000FF803E07E07FC03FFFFFFFFFF3FFC01FB4
:103D2000FFFFFFC3C3C3C0F00787E1F000E00F80CF
:103D30003FFFFFFFFFFFFE7FFFFFFFFFFFFFFFFFD4
:103D4000FFFFFFC07E07E07FFFFFFFFFFFFFF9FFE0
:103D5000819FFFFFFFC3C3C3E0F81F87E1F810F0A6
:103D60003FC0FFFFFFFFFFFFFE7FFFFFFFFFFFFFE3
:103D7000FFFFFFFFFFFFFE07C0FFFFFFFFFFFFFF8B
:103D8000FCFE031FFFFFFFFFFFFFFFFFFFFFFFFF23
:103D9000FFFFFFFFFFFFFFFFFFFFFFFFFFFFFFFF33
:103DA000FFFFFFFFFFFFFFFFFF0701FFFFFFFFFF19
:103DB000FFFFFC7E061FFFFFFFFFFFFFFFFFFFFF70
:103DC000FFFFFFFFFFFFFFFFFFFFFFFFFFFFFFFF03
:103DD000FFFFFFFFFFFFFFFFFFFFFF8003FFFFFF6E
:103DE000FFFFFFFFFE3C0C1FFFFFFFFFFFFFFFFF7A
:103DF000FFFFFFFFFFFFFFFFFFFFFFFFFFFFFFFFD3
:103E0000FFFFFFFFFFFFFFFFFFFFFFFFFFE01FFFC1
:103E1000FFFFFFFFFFFFFF3C181FFFFFFFFFFFFF3C
:103E2000FFFFFFFFFFFFFFFFFFFFFFFFFFFFFFFFA2
:103E3000FFFFFFFFFFFFFFFFFFFFFFFFFFFFFFFF92
:103E4000FFFFFFFFFFFFFFFFFF18101FFFFFFFFF38
:103E5000FFFFFFFFFFFFFFFFFFFFFFFFFFFFFFFF72
:103E6000FFFFFFFFFFFFFFFFFFFFFFFFFFFFFFFF62
:103E7000FFFFFFFFFFFFFFFFFE1FFF98203FFFFF39
:103E8000FFFFFFFFFFFFFFFFFFFFFFFFFFFFFFFF42
:103E9000FFFFFFFFFFFFFFFFFFFFFFFFFFFFFFFF32
:103EA000FFFFFFFFFFFFFFFFFFFFFE00FFC8003F18
:103EB000FFFFFFFFFFFFFFFFFFFFFFFFFFFFFFFF12
:103EC000FFFFFFFFFFFFFFFFFFFFFFFFFFFFFFFF02
:103ED000FFFFFFFFFFFFFFFFFFFFFFFFFC001FC80B
:103EE000003FFFFFFFFFFFFFFFFFFFFFFFFFFFFFA1
:103EF000FFFFFFFFFFFFFFFFFFFFFFFFFFFFFFFFD2
:103F0000FFFFFFFFFFFFFFFFFFFFFFFFFFFFF800C7
:103F10000FCC007FFFFFFFFFFFFFFFFFFFFFFFFF53
:103F2000FFFFFFFFFFFFFFFFFFFFFFFFFFFFFFFFA1
:103F3000FFFFFFFFFFFFFFFFFFFFFFFFFFFFFFFF91
:103F4000F82007E6007FFFFFFFFFFFFFFFFFFFFFF7
:103F5000FFFFFFFFFFFFFFFFFFFFFFFFFFFFFFFF71
:103F6000FFFFFFFFFFFFFFFFFFFFFFFFFFFFFFFF61
:103F7000FFFFF81C03E700FFFFFFFFFFFFFFFFFF4E
:103F8000FFFFFFFFFFFFFFFFFFFFFFFFFFFFFFFF41
:103F9000FFFFFFFFFFFFFFFFFFFFFFFFFFFFFFFF31
:103FA000FFFFFFFFFC0601F700FFFFFFFFFFFFFF22
:103FB000FFFFFFFFFFFFFFFFFFFFFFFFFFFFFFFF11
:103FC000FFFFFFFFFFFFFFFFFFFFFFFFFFFFFFFF01
:103FD000FFFFFFFFFFFFFC0381F303FFFFFFFFFF76
:103FE000FFFFFFFFFFFFFFFFFFFFFFFFFFFFFFFFE1
:103FF000FFFFFFFFFFFFFFFFFFFFFFFFFFFFFFFFD1
:10400000FFFFFFFFFFFFFFFFFE00E0F38FFFFFFF5B
:10401000FFFFFFFFFFFFFFFFFFFFFFFFFFFFFFFFB0
:10402000FFFFFFFFFFFFFFFFFFFFFFFFFFFFFFFFA0
:10403000FFFFFFFFFFFFFFFFFFFFFF0061F3FFFF39
:10404000FFFFFFFFFFFFFFFFFFFFFFFFFFFFFFFF80
:10405000FFFFFFFFFFFFFFFFFFFFFFFFFFFFFFFF70
:10406000FFFFFFFFFFFFFFFFFFFFFFFFFF8003F3E7
:10407000FFFFFFFFFFFFFFFFFFFFFFFFFFFFFFFF50
:10408000FFFFFFFFFFFFFFFFFFFFFFFFFFFFFFFF40
:10409000FFFFFFFFFFFFFFFFFFFFFFFFFFFFFFC06F
:1040A00003F3FFFFFFFFFFFFFFFFFFFFFFFFFFFF28
:1040B000FFFFFFFFFFFFFFFFFFFFFFFFFFFFFFFF10
:1040C000FFFFFFFFFFFFFFFFFFFFFFFFFFFFFFFF00
:1040D000FFE003F3FFFFFFFFFFFFFFFFFFFFFFFF17
:1040E000FFFFFFFFFFFFFFFFFFFFFFFFFFFFFFFFE0
:1040F000FFFFFFFFFFFFFFFFFFFFFFFFFFFFFFFFD0
:10410000FFFFFFFC1FF3FFFFFFFFFFFFFFFFFFFFAE
:10411000FFFFFFFFFFFFFFFFFFFFFFFFFFFFFFFFAF
:10412000FFFFFFFFFFFFFFFFFFFFFFFFFFFFFFFF9F
:10413000FFFFFFFFFFFFFFF3FFFFFFFFFFFFFFFF9B
:10414000FFFFFFFFFFFFFFFFFFFFFFFFFFFFFFFF7F
:10415000FFFFFFFFFFFFFFFFFFFFFFFFFFFFFFFF6F
:10416000FFFFFFFFFFFFFFFFFFE7FFFFFFFFFFFF77
:10417000FFFFFFFFFFFFFFFFFFFFFFFFFFFFFFFF4F
:10418000FFFFFFFFFFFFFFFFFFFFFFFFFFFFFFFF3F
:10419000FFFFFFFFFFFFFFFFFFFFFFE7FFFFFFFF47
:1041A000FFFFFFFFFFFFFFFFFFFFFFFFFFFFFFFF1F
:1041B000FFFFFFFFFFFFFFFFFFFFFFFFFFFFFFFF0F
:1041C000FFFFFFFFFFFFFFFFFFFFFFFFFFE7FFFF17
:1041D000FFFFFFFFFFFFFFFFFFFFFFFFFFFFFFFFEF
:1041E000FFFFFFFFFFFFFFFFFFFFFFFFFFFFFFFFDF
:1041F000FFFFFFFFFFFFFFFFFFFFFFFFFFFFFFEFDF
:10420000FFFFFFFFFFFFFFFFFFFFFFFFFFFFFFFFBE
:10421000FFFFFFFFFFFFFFFFFFFFFFFFFFFFFFFFAE
:10422000FFFFFFFFFFFFFFFFFFFFFFFFFFFFFFFF9E
:10423000FFFFFFFFFFFFFFFFFFFFFFFFFFFFFFFF8E
:10446000FFFFFFFFF3FFFFFFCFFFFFFFFFFFFFFF98
:10447000FFFFFFFFE7FFFFE3E3FFFFFFFFFFFFFF9C
:10448000FFFFFFFFFFFFFFFFFFFFFFFFFFFFFFFF3C
:10449000FFFFFFFFFFFFF1FFFE3FCFFFFFFFFFFF2B
:1044A000FFFFFFFFFFFFC7FFFFC001FFFFFFFFFF91
:1044B000FFFFFFFFFFFFFFFFFFFFFFFFFFFFFFFF0C
:1044C000FFFFFFFFFFFFFFFFF1FFFE18003FFFFFB1
:1044D000FFFFFFFFFFFFFFE7C7CFFF81E0FFFFFF09
:1044E000FFFFFFFFFFFFFFFFFFFFFFFFFFFFFFFFDC
:1044F000FFFFFFFFFFFFFFFFFFFFF1FFFF88007FD0
:10450000FFFFFFFFFFFFFFFFFFE00007FF8FE0FF60
:10451000FFFFFFFFFFFFFFFFFFFFFFFFFFFFFFFFAB
:10452000FFFFFFFFFFFFFFFFFFFFFFFFF3FFFFFFA7
:1045300027FFFFFFFFFFFFFFFFFFFFC00007FFFE9A
:1045400007FFFFFFFFFFFFFFFFFFFFFFFFFFFFFF73
:10455000FFFFFFFFFFFFFFFFFFFFFFFFFFF800036D
:10456000FC6E67FFFFFFFFFFFFFFFFFFFFE7CFC707
:10457000FFFF1FFFFFFFFFFFFFFFFFFFFFFFFFFF2B
:10458000FFFFFFFFFFFFFFFFFFFFFFFFFFFFFFF04A
:104590000003F80C67FFFFFFFFFFFFFFFFFFFFE7D0
:1045A000CFCFFFFF1FFFFFFFFFFFFFFFFFFFFFFF5B
:1045B000FFFFFFFFFFFFFFFFFFFFFFFFFFFFFFFF0B
:1045C000FFF7E1FFF98C007FFFFFFFFFFFFFFFFF19
:1045D000FFE0000FF8000007FFFFFFFFFFFFFFFFF6
:1045E000FFFFFFFFFFFFFFFFFFFFFFFFFFFFFFFFDB
:1045F000FFFFFFFFE0FFFF9CE7FFFFFFFFFFFFFF65
:10460000FFFFFFE7CFCFF0010007FFFFFFFFFFFF36
:10461000FFFFFFFFFFFFFFFFFFFFFFFFFFFF801F09
:10462000FFFFFFFFFFFFE47FFF1FE7FFFFFFFFFF2D
:10463000FFFFFFFFFFE7CFCFF07F9E07FFFFFFFFEA
:10464000FFFFFFFFFFFFFFFFFFFFFFFFFFFFFFFC7D
:10465000000FFFFFFFFFFFFFC63FFFD8001FFFFF58
:10466000FFFFFFFFFFFFFFE0000FF7FF9FCFFFFF00
:10467000FFFFFFFFFFFFFFFFFFFFFFFFFFFFFFFF4A
:10468000FFF8004FFFFFFFFFFFFFCF1FFFC0E03F1E
:10469000FFFFFFFFFFFFFFFFFFF0000FFFFF9FFF88
:1046A000FFFFFFFFFFFFFFFFFFFFFFFFFFFFFFFF1A
:1046B000FFFFFFF0018FFFFFFFFFFFFF8F07F81FD6
:1046C000E7FFFFFFFFFFFFFFFFFFFFF0C7DFFFFF79
:1046D0009FFFFFFFFFFFFFFFFFFFFFFFFFFFFFFF4A
:1046E000FFFFFFFFFFE0031FFFFFFFFFFFFE1F8332
:1046F000F001E7FFFFFFFFFFFFFFFFFFFFFFC7FF27
:10470000BFFF1FFFFFFFFFFFFFFFFFFFFFFFFFFFD9
:10471000FFFFFFFFFFFFFFC00E1FFFFFFFFFFFE0D8
:104720003FC073F001FFFFFFFFFFFFFFFFFFFFFF31
:10473000E1FE3FFF1FFFFFFFFFFFFFFFFFFFFFFF48
:10474000FFFFFFFFFFFFFFFFFFC01C1FFFFFFFFF7B
:10475000FF807FE03FFF0007FFFFFFFFFFFFFFFF3E
:10476000FFFFE0007FBE1FFFFFFFFFFFFFFFFFFF18
:10477000FFFFFFFFFFFFFFFFFFFFFFC0303FFFFF17
:10478000FFFFFFC0FFF07FFFE00FFFFFFFFFFFFF16
:10479000FFFFFFFFF0007FC01FFFFFFFFFFFFFFFD6
:1047A000FFFFFFFFFFFFFFFFFFFFFFFFFFC0403FD7
:1047B000FFFFFFFFFFFFFFF8FFFFFC0FFFFFFFFF03
:1047C000FFFFFFFFFFFFFC00FFE03FFFFFFFFFFFDA
:1047D000FFFFFFFFFFFFFFFFFFFFFFFFFFFFFFE008
:1047E000007FFFFFFFFFFFFFFFFFFFFFFF3FFFFF18
:1047F000FFFFFFFFFFFFFFFFFF83FFFDFFFFFFFF47
:10480000FFFFFFFFFFFFFFFFFFFFFFFFFFFFFFFFB8
:10481000FFFC00FFFFFFFFFFFFFFFFFFFFFFFFFFAA
:10482000FFFFFFFFFFFFFFFFFFFFFFFFFFFFFFFF98
:10483000FFFFFFFFFFFFFFFFFFFFFFFFFFFFFFFF88
:10484000FFFFE03C01FFFFFFFFFFFFFFFFFFFFFF58
:10485000FFFFFFFFFFFFFFFFFFFFFFFFFFFFFFFF68
:10486000FFFFFFFFFFFFFFFFFFFFFFFFFFFFFFFF58
:10487000FFFFFFFF000E07FFFFFFFFFFFFFFFFFF30
:10488000FFFFFFFFFFFFFFFFFFFFF1FFFFFFF1FF54
:10489000FFFFFFFFFFFFFFFFFFFFFFFFFFFFFFFF28
:1048A000FFFFFFFFFFFF1C03FFFFFFFFFFFFFFFFF7
:1048B000FFFFFFFFFFFF9FFFFFFFFFFFF9E7FFFF86
:1048C000F9FFFFFFFFFFFFFFFFFFFFFFFFFFFFFFFE
:1048D000FFFFFFFFFFFFFFFFFFF0FFFFFC01FFFFF8
:1048E000FFFFFFFFFFFFFFFF9FFFFFFFFFFFF9E756
:1048F000FFFFF9FFFFFFFFFFFFFFFFFFFFFFFFFFCE
:10490000FFFFFFFFFFFFFFFFFFFFFFFC3FFFE00098
:10491000FFFFFFFFFFFFFFFFFFFFFFFFFFFFFFFFA7
:10492000F9FFFFFFF9FFFFFFFFFFFFFFFFFFFFFFA3
:10493000FFFFFFFFFFFFFFFFFFFFFFFFFFFF0FFF77
:104940008000FFFFFFFFFFFFFFFFFFFFFFFFFFFFF5
:10495000FFFFF9FFFFFFF9FFFFFFFFFFFFFFFFFF73
:10496000FFFFFFFFFFFFFFFFFFFFFFFFFFFFFFFF57
:10497000C7FF000CFFFFC39807300E61FE17986158
:104980001C710FFF81E78188F9E0E187F8710FFF63
:10499000FFFFFFFFFFFFFFFFFFFFFFFFFFFFFFFF27
:1049A000FF1FE3FE0039FFFFE79CCF399E73FCC772
:1049B0001CFB9E78E7FF31C739C679CE73EFF33819
:1049C000E7FFFFFFFFFFFFFFFFFFFFFFFFFFFFFF0F
:1049D000FFFFF80FF1FE0061FFFFF38DE71BCE37FD
:1049E000F9E79E779E79E7FE79E73DCF39CE79DF0B
:1049F000E739E7FFFFFFFFFFFFFFFFFFFFFFFFFFBD
:104A0000FFFFFFFFF007F8FC00C1FFFFF34DE69B3F
:104A1000CD37F9E79E779E79E7FE79E70FCF39FC2E
:104A200079DFE7F9E7FFFFFFFFFFFFFFFFFFFFFF72
:104A3000FFFFFFFFFFFFF003FC7C0303FFFFF34DCD
:104A4000E69BCD37F9E79F2F9E79E70279E783CF81
:104A500039E27CBFE7F9E7FFFFFFFFFFFFFFFFFF42
:104A6000FFFFFFFFFFFFFFFFF003FE3C0603FFFF1A
:104A7000F8E3F1C7E38FF9E79F2F9E79E7FE79E727
:104A8000F1CF39CE7CBFE7F9E7FFFFFFFFFFFFFF64
:104A9000FFFFFFFFFFFFFFFFFFFFE081FF9E00071B
:104AA000FFFFF8E3F1C7E38FF9E79FAF9E79E7FED9
:104AB00079E779CF39CE7EBFE7D9E7FFFFFFFFFF68
:104AC000FFFFFFFFFFFFFFFFFFFFFFFFE0C1FFCF83
:104AD000800FFFFFFDE7FBCFF79F3CC79F9F9C79AF
:104AE000E7FF31E739C679CC7E7CF3B9E7FFFFFFFA
:104AF000FFFFFFFFFFFFFFFFFFFFFFFFFFFFE0C024
:104B0000FFE7C01FFFFFFDF7FBEFF7DF3E270F9F1B
:104B1000C230C3FF88C303C0F0E23E7CF870C3FF1D
:104B2000FFFFFFFFFFFFFFFFFFFFFFFFFFFFFFFF95
:104B3000E060FFF3C07FFFFFFFFFFFFFFFFFFFE726
:104B4000FFBFFFFFFFFFFFFFFFCFFFFFFEFFFFFFE6
:104B5000FFFFFFFFFFFFFFFFFFFFFFFFFFFFFFFF65
:104B6000FFFFE020FFF9FFFFFFFFFFFFFFFFFFFF59
:104B7000FFE7FFBFFFFFFFFFFFFFFFCFFFFFFEFFCE
:104B8000FFFFFFFFFFFFFFFFFFFFFFFFFFFFFFFF35
:104B9000FFFFFFFFF030FFFC7FFFFFFFFFFFFFFF86
:104BA000FFFFFFE7F97FFFFFFFFFFFFFFFCFFFFFE3
:104BB000E5FFFFFFFFFFFFFFFFFFFFFFFFFFFFFF1F
:104BC000FFFFFFFFFFFFF030FFFE3FFFFFFFFFFF94
:104BD000FFFFFFFFFFC3F8FFFFFFFFFFFFFFFF87A0
:104BE000FFFFE3FFFFFFFFFFFFFFFFFFFFFFFFFFF1
:104BF000FFFFFFFFFFFFFFFFF010FFFF0FFFFFFFB3
:104C0000FFFFFFFFFFFFFFFFFFFFFFFFFFFFFFFFB4
:104C1000FFFFFFFFFFFFFFFFFFFFFFFFFFFFFFFFA4
:104C2000FFFFFFFFFFFFFFFFFFFFF810FFFFC000C8
:104C30001FFFC00000000000000000000000000096
:104C40000000000000000000000000000000000064
:104C50000000001FFFFFFFFFFFFFFFFFFC00FFFF43
:104C6000F0000FFFC0000000000000000000000086
:104C70000000000000000000000000000000000034
:104C800000000000001FFFFFFFFFFFFFFFFFFE000F
:104C9000FFFFFFFFC7FFFFFFFFFFFFFFFFFFFFFF5C
:104CA000FFFFFFFFFFFFFFFFFFFFFFFFFFFFFFFF14
:104CB000FFFFFFFFFFFFFFFFFFFFFFFFFFFFFFFF04
:104CC000FF00FFFFFFFE67FFFFFFFFFFFFFFFFFF8C
:104CD000FFFFFFFFFFFFFFFFFFFFFFFFFFFFFFFFE4
:104CE000FFFFFFFFFFFFFFFFFFFFFFFFFFFFFFFFD4
:104CF000FFFFFF81FFFFFFFC73FFFFFFFFFFFFFFD1
:104D0000FFFFFFFFFFFFFFFFFFFFFFFFFFFFFFFFB3
:104D1000FFFFFFFFFFFFFFFFFFFFFFFFFFFFFFFFA3
:104D2000FFFFFFFFFFE7FFFFFFF8F7FFFFFFFFFFBA
:104D3000FFFFFFFFFFFFFFFFFFFFFFFFFFFFFFFF83
:104D4000FFFFFFFFFFFFFFFFFFFFFFFFFFFFFFFF73
:104D5000FFFFFFFFFFFFFFFFFFFFFFF8E7FFFFFF82
:104D6000FFFFFFFFFFFFFFFFFFFFFFFFFFFFFFFF53
:104D7000FFFFFFFFFFFFFFFFFFFFFFFFFFFFFFFF43
:104D8000FFFFFFFFFFFFFFFFFFFFFFFFFFFC0FFF26
:104D9000FFFFFFFFFFFFFFFFFFFFFFFFFFFFFFFF23
:104DA000FFFFFFFFFFFFFFFFFFFFFFFFFFFFFFFF13
:104DB000FFFFFFFFFFFFFFFFFFFFFFFFFFFFFFFE04
:104DC0001FFFFFFFFFFFFFFFFFFFFFFFFFFFFFFFD3
:104DD000FFFFFFFFFFFFFFFFFFFFFFFFFFFFFFFFE3
:104DE000FFFFFFFFFFFFFFFFFFFFFFFFFFFFFFFFD3
:104DF000FFFFFFFFFFFFFFFFFFFFFFFFFFFFFFFFC3
:104E0000FFFFFFFFFFFFFFFFFFFFFFFFFFFFFFFFB2
:104E1000FFFFFFFFFFFFFFFFFFFFFFFFFFFFFFFFA2
:104E2000FFFFFFFFFFFFFFFFFFFFFFFFFFFFFFFF92
:104E3000FFFFFFFFFFFFFFFFFFFFFFFFFFFFFFFF82
:104E4000FFFFFFFFFFFFFFFFFFFFFFFFFFFFFFFF72
:104E5000FFFFFFFFFFFFFFFFFFFFFFFFFFFFFFFF62
:104E6000FFFFFFFFFFFFFFFFFFFFFFFFFFFFFFFF52
:104E7000FFFFFFFFFFFFFFFFFFFFFFFFFFFFFFFF42
:104E8000FFFFFFFFFFFFFFFFFFFFFFFFFFFFFFFF32
:104E9000FFFFFFFFFFFFFFFFFFFFFFFFFFFFFFFF22
:104EA000FFFFFFFFFFFFFFFFFFFFFFFFFFFFFFFF12
:104EB000FFFFFFFFFFFFFFFFFFFFFFFFFFFFFFFF02
:104EC000FFFFFFFFFFFFFFFFFFFFFFFFFFFFFFFFF2
:104ED000FFFFFFFFFFFFFFFFFFFFFFFFFFFFFFFFE2
:104EE000FFFFFFFFFFFFFFFFFFFFFFFFFFFFFFFFD2
:104EF000FFFFFFFFFFFFFFFFFFFFFFFFFFFFFFFFC2
:104F0000FFFFFFFFFFFFFFFFFFFFFFFFFFFFFFFFB1
:104F1000FFFFFFFFFFFFFFFFFFFFFFFFFFFFFFFFA1
:104F2000FFFFFFFFFFFFFFFFFFFFFFFFFFFFFFFF91
:104F3000FFFFFFFFFFFFFFFFFFFFFFFFFFFFFFFF81
:104F4000FFFFFFFFFFFFFFFFFFFFFFFFFFFFFFFF71
:104F5000FFFFFFFFFFFFFFFFFFFFFFFFFFFFFFFF61
:104F6000FFFFFFFFFFFFFFFFFFFFFFFFFFFFFFFF51
:104F7000FFFFFFFFFFFFFFFFFFFFFFFFFFFFFFFF41
:104F8000FFFFFFFFFFFFFFFFFFFFFFFFFFFFFFFF31
:104F9000FFFFFFFFFFFFFFFFFFFFFFFFFFFFFFFF21
:104FA000FFFFC1FFFFFFFFFFFFFFFFFFFFFFFFFF4F
:104FB000FFFFFFFFFFFFFFFFFFFFFFFFFFFFFFFF01
:104FC000FFFFFFFFFFFFFFFFFFFFFFFFFFFFFFFFF1
:104FD000FFFFFFE0007F81FFFFFFFFFFFFFFFFFFFD
:104FE000FFFFFFFFFFFFFFFFFFFFFFFFFFFFFFFFD1
:104FF000FFFFFFFFFFFFFFFFFFFFFFFFFFFFFFFFC1
:10500000FFFFFFFFFF80003E007FFFFFFFFFFFFF6E
:10501000FFFFFFFFFFFFFFFFFFFFFFFFFFFFFFFFA0
:10502000FFFFFFFFFFFFFFFFFFFFFFFFFFFFFFFF90
:10503000FFFFFFFFFFFFFF00001C003FFFFFFFFF20
:10504000FFFFFFFFFFFFFFFFFFFFFFFFFFFFFFFF70
:10505000FFFFFFFFFFFFFFFFFFFFFFFFFFFFFFFF60
:10506000FFFFFFFFFFFFFFFFFC00001C003FFFFFF3
:10507000FFFFFFFFFFFFFFFFFFFFFFFFFFFFFFFF40
:10508000FFFFFFFFFFFFFFFFFFFFFFFFFFFFFFFF30
:10509000FFFFFFFFFFFFFFFFFFFFFC00000C001FF3
:1050A000FFFFFFFFFFFFFFFFFFFFFFFFFFFFFFFF10
:1050B000FFFFFFFFFFFFFFFFFFFFFFFFFFFFFFFF00
:1050C000FFFFFFFFFFFFFFFFFFFFFFFFF800000EE6
:1050D000001FFFFFFFFFFFFFFFFFFFFFFFFFFFFFBF
:1050E000FFFFFFFFFFFFFFFFFFFFFFFFFFFFFFFFD0
:1050F000FFFFFFFFFFFFFFFFFFFFFFFFFFFFF800C6
:105100000FCC000FFFFFFFFFFFFFFFFFFFFFFFFFC1
:10511000FFFFFFFFFFFFFFFFFFFFFFFFFFFFFFFF9F
:10512000FFFFFFFFFFFFFFFFFFFFFFFFFFFFFFFF8F
:10513000F8003FFC000FFFFFFFFFFFFFFFFFFFFF37
:10514000FFFFFFFFFFFFFFFFFFFFFFFFFFFFFFFF6F
:10515000FFFFFFFFFFFFFFFFFFFFFFFFFFFFFFFF5F
:10516000FFFFF800701C000FFFFFFFFFFFFFFFFFB6
:10517000FFFFFFFFFFFFFFFFFFFFFFFFFFFFFFFF3F
:10518000FFFFFFFFFFFFFFFFFFFFFFFFFFFFFFFF2F
:10519000FFFFFFFFF800F00FF80FFFFFFFFFFFFF1B
:1051A000FFFFFFFFFFFFFFFFFFFFFFFFFFFFFFFF0F
:1051B000FFFFFFFFFFFFFFFFFFFFFFFFFFFFFFFFFF
:1051C000FFFFFFFFFFFFF801F01FFC1FFFFFFFFFC6
:1051D000FFFFFFFFFFFFFFFFFFFFFFFFFFFFFFFFDF
:1051E000FFFFFFFFFFFFFFFFFFFFFFFFFFFFFFFFCF
:1051F000FFFFFFFFFFFFFFFFFC0311FFFE1FFFFF8D
:10520000FFFFFFFFFFFFFFFFFFFFFFFFFFFFFFFFAE
:10521000FFFFFFFFFFFFFFFFFFFFFFFFFFFFFFFF9E
:10522000FFFFFFFFFFFFFFFFFFFFFC060FCEC73FA3
:10523000FFFFFFFFFFFFFFFFFFFFFFFFFFFFFFFF7E
:10524000FFFFFFFFFFFFFFFFFFFFFFFFFFFFFFFF6E
:10525000FFFFFFFFFFFFFFFFFFFFFFFFFE0C1E0C26
:1052600063FFFFFFFFFFFFFFFFFFFFFFFFFFFFFFEA
:10527000FFFFFFFFFFFFFFFFFFFFFFFFFFFFFFFF3E
:10528000FFFFFFFFFFFFFFFFFFFFFFFFFFFFFF8CA1
:10529000000E20E3FFFFFFFFFFFFFFFFFFFFFFFF09
:1052A000FFFFFFFFFFFFFFFFFFFFFFFFFFFFFFFF0E
:1052B000FFFFFFFFFFFFFFFFFFFFFFFFFFFFFFFFFE
:1052C000FFF8001E3061FFFFFFFFFFFFFFFFFFFF42
:1052D000FFFFFFFFFFFFFFFFFFFFFFFFFFFFFFFFDE
:1052E000FFFFFFFFFFFFFFFFFFFFFFFFFFFFFFFFCE
:1052F000FFFFFC3803F63020FFFFFFFFFFFFFFFF3B
:10530000FFFFFFFFFFFFFFFFFFFFFFFFFFFFFFFFAD
:10531000FFFFFFFFFFFFFFFFFFFFFFFFFFFFFFFF9D
:10532000FFFFFFFFF03807DE30207FFFFFFFFFFFAA
:10533000FFFFFFFFFFFFFFFFFFFFFFFFFFFFFFFF7D
:10534000FFFFFFFFFFFFFFFFFFFFFFFFFFFFFFFF6D
:10535000FFFFFFFFFFFFE0301C7C30207FFFFFFFDF
:10536000FFFFFFFFFFFFFFFFFFFFFFFFFFFFFFFF4D
:10537000FFFFFFFFFFFFFFFFFFFFFFFFFFFFFFFF3D
:10538000FFFFFFFFFFFFFFFFC0301C3830607FFFD3
:10539000FFFFFFFFFFFFFFFFFFFFFFFFFFFFFFFF1D
:1053A000FFFFFFFFFFFFFFFFFFFFFFFFFFFFFFFF0D
:1053B000FFFFFFFFFFFFFFFFFFFF80300E30306079
:1053C0003FFFFFFFFFFFFFFFFFFFFFFFFFFFFFFFAD
:1053D000FFFFFFFFFFFFFFFFFFFFFFFFFFFFFFFFDD
:1053E000FFFFFFFFFFFFFFFFFFFFFFFF0030000099
:1053F00060603FFFFFFFFFFFFFFFFFFFFFFFFFFFBB
:10540000FFFFFFFFFFFFFFFFFFFFFFFFFFFFFFFFAC
:10541000FFFFFFFFFFFFFFFFFFFFFFFFFFFF00306A
:1054200000C0C0603FFFFFFFFFFFFFFFFFFFFFFF68
:10543000FFFFFFFFFFFFFFFFFFFFFFFFFFFFFFFF7C
:10544000FFFFFFFFFFFFFFFFFFFFFFFFFFFFFFFE6D
:10545000003800E380E03FFFFFFFFFFFFFFFFFFF9B
:10546000FFFFFFFFFFFFFFFFFFFFFFFFFFFFFFFF4C
:10547000FFFFFFFFFFFFFFFFFFFFFFFFFFFFFFFF3C
:10548000FFFE003C01F700E03FFFFFFFFFFFFFFFD3
:10549000FFFFFFFFFFFFFFFFFFFFFFFFFFFFFFFF1C
:1054A000FFFFFFFFFFFFFFFFFFFFFFFFFFFFFFFF0C
:1054B000FFFFFFFE003F073E00E03FFFFFFFFFFF53
:1054C000FFFFFFFFFFFFFFFFFFFFFFFFFFFFFFFFEC
:1054D000FFFFFFFFFFFFFFFFFFFFFFFFFFFFFFFFDC
:1054E000FFFFFFFFFFFE001FFE1C00C03FFFFFFF8E
:1054F000FFFFFFFFFFFFFFFFFFFFFFFFFFFFFFFFBC
:10550000FFFFFFFFFFFFFFFFFFFFFFFFFFFFFFFFAB
:10551000FFFFFFFFFFFFFFFE001FE01800C03FFF7F
:10552000FFFFFFFFFFFFFFFFFFFFFFFFFFFFFFFF8B
:10553000FFFFFFFFFFFFFFFFFFFFFFFFFFFFFFFF7B
:10554000FFFFFFFFFFFFFFFFFFFE000E001001C087
:105550003FFFFFFFFFFFFFFFFFFFFFFFFFFFFFFF1B
:10556000FFFFFFFFFFFFFFFFFFFFFFFFFFFFFFFF4B
:10557000FFFFFFFFFFFFFFFFFFFFFFFF0006001819
:1055800003803FFFFFFFFFFFFFFFFFFFFFFFFFFF66
:10559000FFFFFFFFFFFFFFFFFFFFFFFFFFFFFFFF1B
:1055A000FFFFFFFFFFFFFFFFFFFFFFFFFFFF800782
:1055B000001C07007FFFFFFFFFFFFFFFFFFFFFFF54
:1055C000FFFFFFFFFFFFFFFFFFFFFFFFFFFFFFFFEB
:1055D000FFFFFFFFFFFFFFFFFFFFFFFFFFFFFFFFDB
:1055E000C001800E0E007FFFFFFFFFFFFFFFFFFFE8
:1055F000FFFFFFFFFFFFFFFFFFFFFFFFFFFFFFFFBB
:10560000FFFFFFFFFFFFFFFFFFFFFFFFFFFFFFFFAA
:10561000FFFFE000E007FC007FFFFFFFFFFFFFFF51
:10562000FFFFFFFFFFFFFFFFFFFFFFFFFFFFFFFF8A
:10563000FFFFFFFFFFFFFFFFFFFFFFFFFFFFFFFF7A
:10564000FFFFFFFFF8003807F800FFFFFFFFFFFF35
:10565000FFFFFFFFFFFFFFFFFFFFFFFFFFFFFFFF5A
:10566000FFFFFFFFFFFFFFFFFFFFFFFFFFFFFFFF4A
:10567000FFFFFFFFFFFFFE0000FE0000FFFFFFFF38
:10568000FFFFFFFFFFFFFFFFFFFFFFFFFFFFFFFF2A
:10569000FFFFFFFFFFFFFFFFFFFFFFFFFFFFFFFF1A
:1056A000FFFFFFFFFFFFFFFFFF00007E0001FFFF86
:1056B000FFFFFFFFFFFFFFFFFFFFFFFFFFFFFFFFFA
:1056C000FFFFFFFFFFFFFFFFFFFFFFFFFFFFFFFFEA
:1056D000FFFFFFFFFFFFFFFFFFFFFF0000FF0003D3
:1056E000FFFFFFFFFFFFFFFFFFFFFFFFFFFFFFFFCA
:1056F000FFFFFFFFFFFFFFFFFFFFFFFFFFFFFFFFBA
:10570000FFFFFFFFFFFFFFFFFFFFFFFFFF8003FF24
:105710008007FFFFFFFFFFFFFFFFFFFFFFFFFFFF10
:10572000FFFFFFFFFFFFFFFFFFFFFFFFFFFFFFFF89
:10573000FFFFFFFFFFFFFFFFFFFFFFFFFFFFFFC0B8
:105740000FFFE00FFFFFFFFFFFFFFFFFFFFFFFFF68
:10575000FFFFFFFFFFFFFFFFFFFFFFFFFFFFFFFF59
:10576000FFFFFFFFFFFFFFFFFFFFFFFFFFFFFFFF49
:10577000FFF87FFFFFFFFFFFFFFFFFFFFFFFFFFFC0
:10578000FFFFFFFFFFFFFFFFFFFFFFFFFFFFFFFF29
:10579000FFFFFFFFFFFFFFFFFFFFFFFFFFFFFFFF19
:1057A000FFFFFFFFFFFFFFFFFFFFFFFFFFFFFFFF09
:1057B000FFFFFFFFFFFFFFFFFFFFFFFFFFFFFFFFF9
:105A6000FFFFFFFFFFFFFFFFFFFFFFFC07FFFFF848
:105A700003FFFFFFFFFFFFFFFFFFFFFFFFFFFFFF32
:105A8000FFFFFFFFFFFFFFFFFFFFFFFFFFFFFFFF26
:105A9000FFFFFFFFFFFFFFFFFFFFFFFFFFF807FF15
:105AA000FFE0007FFFFFFFFFFFFFFFFFFFFFFFFFA4
:105AB000FFFFFFFFFFFFFFFFFFFFFFFFFFFFFFFFF6
:105AC000FFFFFFFFFFFFFFFFFFFFFFFFFFFFFFF0F5
:105AD00007FFFF83C03FFE00203F807F000E0020B5
:105AE00003FF000070003FFC3FF0003E0000E000BC
:105AF0007FFFFFFFFFFFFFFFFFFFFFFFFFFFFFFF36
:105B0000FFE00FFFFF81F01FFE00201F807C000ED2
:105B1000002003FF000070001FFC3FF0001E00008B
:105B2000E0003FFFFFFFFFFFFFFFFFFFFFFFFFFF63
:105B3000FFFFFFC00FFFFF01F01FFF00F00FC1F0DC
:105B40001C0F00F00FFF80F078080FF83FF8080FE7
:105B500001E0F0101FFFFFFFFFFFFFFFFFFFFFFF50
:105B6000FFFFFFFFFF800FFFFF01F01FFF81F80F16
:105B7000E3E07E0F81F81FFFC0F87C0C0FF01FFCE4
:105B80000C0F81F0F8181FFFFFFFFFFFFFFFFFFF63
:105B9000FFFFFFFFFFFFFF000FFFFF01F01FFF01EF
:105BA000F807E7C0FF0F01F01FFF80FCF80C0FF0B3
:105BB0001FF80C0F01F9F0181FFFFFFFFFFFFFFF99
:105BC000FFFFFFFFFFFFFFFFFE101FFFFF01E01FB2
:105BD000FF01F803E7C0FF1F01F01FFF80E4F80C8E
:105BE0000FE01FF80C0F01C9F0181FFFFFFFFFFFA8
:105BF000FFFFFFFFFFFFFFFFFFFFFC301FFFFF83E3
:105C0000C01FFF03F801C781FF9F03F03FFF81C75B
:105C1000F81C0FC01FF81C0F038FF0381FFFFFFF89
:105C2000FFFFFFFFFFFFFFFFFFFFFFFFF8701FFFFA
:105C3000FFFF803FFF03F001CF81FF9F03F03FFF95
:105C40008187F8181FC81FF8181F030FF0303FFF97
:105C5000FFFFFFFFFFFFFFFFFFFFFFFFFFFFF0E082
:105C60001FFFFFFE007FFF03F300CF01FFFF0000D7
:105C70003FFF800FF8101F880FF8101F001FF02043
:105C80007FFFFFFFFFFFFFFFFFFFFFFFFFFFFFFFA4
:105C9000E1E03FFFFFF800FFFE03F3804F03FFFE4C
:105CA00000003FFF000FF0003F1C0FF0003E001F00
:105CB000E000FFFFFFFFFFFFFFFFFFFFFFFFFFFF12
:105CC000FFFFC3E03FFFFFE003FFFE07F3800F038A
:105CD000FFFE07E07FFF030FF001FF3C0FF001FE26
:105CE000061FE001FFFFFFFFFFFFFFFFFFFFFFFFBA
:105CF000FFFFFFFF87E03FFFFF803FFFFE07F3C08E
:105D00001F03FFFE07E07FFF039FF03FFE000FF041
:105D10003FFE073FE001FFFFFFFFFFFFFFFFFFFF29
:105D2000FFFFFFFFFFFF0FC03FE1FE03FFFFFE0786
:105D3000E3E01F03FF3E07E07FFF0399F03FFC0015
:105D40000FF03FFE0733E000FFFFFFFFFFFFFFFF05
:105D5000FFFFFFFFFFFFFFFF000007C0FC00007F09
:105D6000FC07E7E01F03FE3C07C07FFE03F1E03FB6
:105D7000FC7C07E03FFC07E3C000FFFFFFFFFFFFE5
:105D8000FFFFFFFFFFFFFFFFFFFE0000078078001F
:105D9000007FFC07E7F01F01FC7C07C07FFE03E1EA
:105DA000E03FF8FE07E03FFC07C3C0407FFFFFFF76
:105DB000FFFFFFFFFFFFFFFFFFFFFFFE0000078069
:105DC0007800007FFC0FC7F81F81F87C0FC0FFFE32
:105DD00007E3E07FF1FE07E07FFC0FC7C0C07FFF55
:105DE000FFFFFFFFFFFFFFFFFFFFFFFFFFFE0000C2
:105DF0000780700000FFF80F83FC3FC0F0F80F80B1
:105E0000FFFC07C3C07FE1FE03C07FF80F8780E07F
:105E10003FFFFFFFFFFFFFFFFFFFFFFFFFFFFFFE53
:105E200000000F80700000FFE00201FC3FE003E093
:105E300002003FF00003001F807001001FE0000619
:105E400000200FFFFFFFFFFFFFFFFFFFFFFFFFFF30
:105E5000FFFFFF80FFC0F00000FFE00201FE3FF8FF
:105E600007E002003FF00003001F807001001FE008
:105E7000000600300FFFFFFFFFFFFFFFFFFFFFFFE8
:105E8000FFFFFFFFFF80FFE1FFFFFFFFFFFFFFFFBF
:105E9000FFFFFFFFFFFFFFFFFFFFFFFFFFFFFFFF12
:105EA000FFFFFFFFFFFFFFFFFFFFFFFFFFFFFFFF02
:105EB000FFFFFFFFFFFFFF00FFFFFFFFFFFFFFFFF1
:105EC000FFFFFFFFFFFFFFFFFFFFFFFFFFFFFFFFE2
:105ED000FFFFFFFFFFFFFFFFFFFFFFFFFFFFFFFFD2
:105EE000FFFFFFFFFFFFFFFFFF00FFFFFFFFFFFFC1
:105EF000FFFFFFFFFFFFFFFFFFFFFFFFFFFFFFFFB2
:105F0000FFFFFFFFFFFFFFFFFFFFFFFFFFFFFFFFA1
:105F1000FFFFFFFFFFFFFFFFFFFFFF01FFFFFFFF8F
:105F2000FFFFFFFFFFFFFFFFFFFFFFFFFFFFFFFF81
:105F3000FFFFFFFFFFFFFFFFFFFFFFFFFFFFFFFF71
:105F4000FFFFFFFFFFFFFFFFFFFFFFFFFF01FFFF5F
:105F5000FFFFFFFFFFFFFFFFFFFFFFFFFFFFFFFF51
:105F6000FFFFFFFFFFFFFFFFFFFFFFFFFFFFFFFF41
:105F7000FFFFFFFFFFFFFFFFFFFFFFFFFFFFFF012F
:105F8000FFFFFFFFFFFFFFFFFFFFFFFFFFFFFFFF21
:105F9000FFFFFFFFFFFFFFFFFFFFFFFFFFFFFFFF11
:105FA000FFFFFFFFFFFFFFFFFFFFFFFFFFFFFFFF01
:105FB000FFFFFFFFFFFFFFFFFFFFFFFFFFFFFFFFF1
:10712000FFFFFFFFFFFFFFFFFFFFFFFFFFFE000F5F
:10713000FFFFFF8007FFFFFFFFFFFFFFFFFFFFFFD6
:10714000FFFFFFFFFFFFFFFFFFFFFFFFFFFFFFFF4F
:10715000FFFFFFFFFFFFFFFFFFFFFFFFFFFFFFF04E
:107160000000FFFFFC0000FFFFFFFFFFFFFFFFFF2E
:10717000FFFFFFFFFFFFFFFFFFFFFFFFFFFFFFFF1F
:10718000FFFFFFFFFFFFFFFFFFFFFFFFFFFFFFFF0F
:10719000FFC000003FFFF000003FFFFFFFFFFFFFC9
:1071A000FFFFFFFFFFFFFFFFFFFFFFFFFFFFFFFFEF
:1071B000FFFFFFFFFFFFFFFFFFFFFFFFFFFFFFFFDF
:1071C000FFFFFF0000001FFFC000000FFFFFFFFFD9
:1071D000FFFFFFFFFFFFFFFFFFFFFFFFFFFFFFFFBF
:1071E000FFFFFFFFFFFFFFFFFFFFFFFFFFFFFFFFAF
:1071F000FFFFFFFFFE00F8000FFF80030007FFFF07
:10720000FFFFFFFFFFFFFFFFFFFFFFFFFFFFFFFF8E
:10721000FFFFFFFFFFFFFFFFFFFFFFFFFFFFFFFF7E
:10722000FFFFFFFFFFFFFC00FE0007FF000FC00392
:10723000FFFFFFFFFFFFFFFFFFFFFFFFFFFFFFFF5E
:10724000FFFFFFFFFFFFFFFFFFFFFFFFFFFFFFFF4E
:10725000FFFFFFFFFFFFFFFFFC007F0007FE001F97
:10726000E001FFFFFFFFFFFFFFFFFFFFFFFFFFFF4B
:10727000FFFFFFFFFFFFFFFFFFFFFFFFFFFFFFFF1E
:10728000FFFFFFFFFFFFFFFFFFFFF8007F0003FE90
:10729000001FE001FFFFFFFFFFFFFFFFFFFFFFFFFA
:1072A000FFFFFFFFFFFFFFFFFFFFFFFFFFFFFFFFEE
:1072B000FFFFFFFFFFFFFFFFFFFFFFFFF8007F80E3
:1072C00003FC003FF000FFFFFFFFFFFFFFFFFFFF9A
:1072D000FFFFFFFFFFFFFFFFFFFFFFFFFFFFFFFFBE
:1072E000FFFFFFFFFFFFFFFFFFFFFFFFFFFFF800B4
:1072F0007F8003FC003FF000FFFFFFFFFFFFFFFF69
:10730000FFFFFFFFFFFFFFFFFFFFFFFFFFFFFFFF8D
:10731000FFFFFFFFFFFFFFFFFFFFFFFFFFFFFFFF7D
:10732000F8007F8003F8003FF0007FFFFFFFFFFFC2
:10733000FFFFFFFFFFFFFFFFFFFFFFFFFFFFFFFF5D
:10734000FFFFFFFFFFFFFFFFFFFFFFFFFFFFFFFF4D
:10735000FFFFF8007F8003F8007FF8007FFFFFFF4A
:10736000FFFFFFFFFFFFFFFFFFFFFFFFFFFFFFFF2D
:10737000FFFFFFFFFFFFFFFFFFFFFFFFFFFFFFFF1D
:10738000FFFFFFFFFC007F8003F8007FF8007FFF16
:10739000FFFFFFFFFFFFFFFFFFFFFFFFFFFFFFFFFD
:1073A000FFFFFFFFFFFFFFFFFFFFFFFFFFFFFFFFED
:1073B000FFFFFFFFFFFFFC00FF0003F0007FF8006E
:1073C0003FFFFFFFFFFFFFFFFFFFFFFFFFFFFFFF8D
:1073D000FFFFFFFFFFFFFFFFFFFFFFFFFFFFFFFFBD
